{
  "abi": [
    {
      "type": "constructor",
      "inputs": [
        {
          "name": "_ethPOS",
          "type": "address",
          "internalType": "contract IETHPOSDeposit"
        },
        {
          "name": "_eigenPodBeacon",
          "type": "address",
          "internalType": "contract IBeacon"
        },
        {
          "name": "_delegationManager",
          "type": "address",
          "internalType": "contract IDelegationManager"
        },
        {
          "name": "_pauserRegistry",
          "type": "address",
          "internalType": "contract IPauserRegistry"
        },
        {
          "name": "_version",
          "type": "string",
          "internalType": "string"
        }
      ],
      "stateMutability": "nonpayable"
    },
    {
      "type": "function",
      "name": "addShares",
      "inputs": [
        {
          "name": "staker",
          "type": "address",
          "internalType": "address"
        },
        {
          "name": "strategy",
          "type": "address",
          "internalType": "contract IStrategy"
        },
        {
          "name": "shares",
          "type": "uint256",
          "internalType": "uint256"
        }
      ],
      "outputs": [
        {
          "name": "",
          "type": "uint256",
          "internalType": "uint256"
        },
        {
          "name": "",
          "type": "uint256",
          "internalType": "uint256"
        }
      ],
      "stateMutability": "nonpayable"
    },
    {
      "type": "function",
      "name": "beaconChainETHStrategy",
      "inputs": [],
      "outputs": [
        {
          "name": "",
          "type": "address",
          "internalType": "contract IStrategy"
        }
      ],
      "stateMutability": "view"
    },
    {
      "type": "function",
      "name": "beaconChainSlashingFactor",
      "inputs": [
        {
          "name": "podOwner",
          "type": "address",
          "internalType": "address"
        }
      ],
      "outputs": [
        {
          "name": "",
          "type": "uint64",
          "internalType": "uint64"
        }
      ],
      "stateMutability": "view"
    },
    {
      "type": "function",
      "name": "burnableETHShares",
      "inputs": [],
      "outputs": [
        {
          "name": "",
          "type": "uint256",
          "internalType": "uint256"
        }
      ],
      "stateMutability": "view"
    },
    {
      "type": "function",
      "name": "createPod",
      "inputs": [],
      "outputs": [
        {
          "name": "",
          "type": "address",
          "internalType": "address"
        }
      ],
      "stateMutability": "nonpayable"
    },
    {
      "type": "function",
      "name": "delegationManager",
      "inputs": [],
      "outputs": [
        {
          "name": "",
          "type": "address",
          "internalType": "contract IDelegationManager"
        }
      ],
      "stateMutability": "view"
    },
    {
      "type": "function",
      "name": "eigenPodBeacon",
      "inputs": [],
      "outputs": [
        {
          "name": "",
          "type": "address",
          "internalType": "contract IBeacon"
        }
      ],
      "stateMutability": "view"
    },
    {
      "type": "function",
      "name": "ethPOS",
      "inputs": [],
      "outputs": [
        {
          "name": "",
          "type": "address",
          "internalType": "contract IETHPOSDeposit"
        }
      ],
      "stateMutability": "view"
    },
    {
      "type": "function",
      "name": "getPod",
      "inputs": [
        {
          "name": "podOwner",
          "type": "address",
          "internalType": "address"
        }
      ],
      "outputs": [
        {
          "name": "",
          "type": "address",
          "internalType": "contract IEigenPod"
        }
      ],
      "stateMutability": "view"
    },
    {
      "type": "function",
      "name": "hasPod",
      "inputs": [
        {
          "name": "podOwner",
          "type": "address",
          "internalType": "address"
        }
      ],
      "outputs": [
        {
          "name": "",
          "type": "bool",
          "internalType": "bool"
        }
      ],
      "stateMutability": "view"
    },
    {
      "type": "function",
      "name": "increaseBurnableShares",
      "inputs": [
        {
          "name": "",
          "type": "address",
          "internalType": "contract IStrategy"
        },
        {
          "name": "addedSharesToBurn",
          "type": "uint256",
          "internalType": "uint256"
        }
      ],
      "outputs": [],
      "stateMutability": "nonpayable"
    },
    {
      "type": "function",
      "name": "initialize",
      "inputs": [
        {
          "name": "initialOwner",
          "type": "address",
          "internalType": "address"
        },
        {
          "name": "_initPausedStatus",
          "type": "uint256",
          "internalType": "uint256"
        }
      ],
      "outputs": [],
      "stateMutability": "nonpayable"
    },
    {
      "type": "function",
      "name": "numPods",
      "inputs": [],
      "outputs": [
        {
          "name": "",
          "type": "uint256",
          "internalType": "uint256"
        }
      ],
      "stateMutability": "view"
    },
    {
      "type": "function",
      "name": "owner",
      "inputs": [],
      "outputs": [
        {
          "name": "",
          "type": "address",
          "internalType": "address"
        }
      ],
      "stateMutability": "view"
    },
    {
      "type": "function",
      "name": "ownerToPod",
      "inputs": [
        {
          "name": "podOwner",
          "type": "address",
          "internalType": "address"
        }
      ],
      "outputs": [
        {
          "name": "",
          "type": "address",
          "internalType": "contract IEigenPod"
        }
      ],
      "stateMutability": "view"
    },
    {
      "type": "function",
      "name": "pause",
      "inputs": [
        {
          "name": "newPausedStatus",
          "type": "uint256",
          "internalType": "uint256"
        }
      ],
      "outputs": [],
      "stateMutability": "nonpayable"
    },
    {
      "type": "function",
      "name": "pauseAll",
      "inputs": [],
      "outputs": [],
      "stateMutability": "nonpayable"
    },
    {
      "type": "function",
      "name": "paused",
      "inputs": [
        {
          "name": "index",
          "type": "uint8",
          "internalType": "uint8"
        }
      ],
      "outputs": [
        {
          "name": "",
          "type": "bool",
          "internalType": "bool"
        }
      ],
      "stateMutability": "view"
    },
    {
      "type": "function",
      "name": "paused",
      "inputs": [],
      "outputs": [
        {
          "name": "",
          "type": "uint256",
          "internalType": "uint256"
        }
      ],
      "stateMutability": "view"
    },
    {
      "type": "function",
      "name": "pauserRegistry",
      "inputs": [],
      "outputs": [
        {
          "name": "",
          "type": "address",
          "internalType": "contract IPauserRegistry"
        }
      ],
      "stateMutability": "view"
    },
    {
      "type": "function",
      "name": "pectraForkTimestamp",
      "inputs": [],
      "outputs": [
        {
          "name": "",
          "type": "uint64",
          "internalType": "uint64"
        }
      ],
      "stateMutability": "view"
    },
    {
      "type": "function",
      "name": "podOwnerDepositShares",
      "inputs": [
        {
          "name": "podOwner",
          "type": "address",
          "internalType": "address"
        }
      ],
      "outputs": [
        {
          "name": "shares",
          "type": "int256",
          "internalType": "int256"
        }
      ],
      "stateMutability": "view"
    },
    {
      "type": "function",
      "name": "proofTimestampSetter",
      "inputs": [],
      "outputs": [
        {
          "name": "",
          "type": "address",
          "internalType": "address"
        }
      ],
      "stateMutability": "view"
    },
    {
      "type": "function",
      "name": "recordBeaconChainETHBalanceUpdate",
      "inputs": [
        {
          "name": "podOwner",
          "type": "address",
          "internalType": "address"
        },
        {
          "name": "prevRestakedBalanceWei",
          "type": "uint256",
          "internalType": "uint256"
        },
        {
          "name": "balanceDeltaWei",
          "type": "int256",
          "internalType": "int256"
        }
      ],
      "outputs": [],
      "stateMutability": "nonpayable"
    },
    {
      "type": "function",
      "name": "removeDepositShares",
      "inputs": [
        {
          "name": "staker",
          "type": "address",
          "internalType": "address"
        },
        {
          "name": "strategy",
          "type": "address",
          "internalType": "contract IStrategy"
        },
        {
          "name": "depositSharesToRemove",
          "type": "uint256",
          "internalType": "uint256"
        }
      ],
      "outputs": [
        {
          "name": "",
          "type": "uint256",
          "internalType": "uint256"
        }
      ],
      "stateMutability": "nonpayable"
    },
    {
      "type": "function",
      "name": "renounceOwnership",
      "inputs": [],
      "outputs": [],
      "stateMutability": "nonpayable"
    },
    {
      "type": "function",
      "name": "setPectraForkTimestamp",
      "inputs": [
        {
          "name": "timestamp",
          "type": "uint64",
          "internalType": "uint64"
        }
      ],
      "outputs": [],
      "stateMutability": "nonpayable"
    },
    {
      "type": "function",
      "name": "setProofTimestampSetter",
      "inputs": [
        {
          "name": "newProofTimestampSetter",
          "type": "address",
          "internalType": "address"
        }
      ],
      "outputs": [],
      "stateMutability": "nonpayable"
    },
    {
      "type": "function",
      "name": "stake",
      "inputs": [
        {
          "name": "pubkey",
          "type": "bytes",
          "internalType": "bytes"
        },
        {
          "name": "signature",
          "type": "bytes",
          "internalType": "bytes"
        },
        {
          "name": "depositDataRoot",
          "type": "bytes32",
          "internalType": "bytes32"
        }
      ],
      "outputs": [],
      "stateMutability": "payable"
    },
    {
      "type": "function",
      "name": "stakerDepositShares",
      "inputs": [
        {
          "name": "user",
          "type": "address",
          "internalType": "address"
        },
        {
          "name": "strategy",
          "type": "address",
          "internalType": "contract IStrategy"
        }
      ],
      "outputs": [
        {
          "name": "depositShares",
          "type": "uint256",
          "internalType": "uint256"
        }
      ],
      "stateMutability": "view"
    },
    {
      "type": "function",
      "name": "transferOwnership",
      "inputs": [
        {
          "name": "newOwner",
          "type": "address",
          "internalType": "address"
        }
      ],
      "outputs": [],
      "stateMutability": "nonpayable"
    },
    {
      "type": "function",
      "name": "unpause",
      "inputs": [
        {
          "name": "newPausedStatus",
          "type": "uint256",
          "internalType": "uint256"
        }
      ],
      "outputs": [],
      "stateMutability": "nonpayable"
    },
    {
      "type": "function",
      "name": "version",
      "inputs": [],
      "outputs": [
        {
          "name": "",
          "type": "string",
          "internalType": "string"
        }
      ],
      "stateMutability": "view"
    },
    {
      "type": "function",
      "name": "withdrawSharesAsTokens",
      "inputs": [
        {
          "name": "staker",
          "type": "address",
          "internalType": "address"
        },
        {
          "name": "strategy",
          "type": "address",
          "internalType": "contract IStrategy"
        },
        {
          "name": "",
          "type": "address",
          "internalType": "contract IERC20"
        },
        {
          "name": "shares",
          "type": "uint256",
          "internalType": "uint256"
        }
      ],
      "outputs": [],
      "stateMutability": "nonpayable"
    },
    {
      "type": "event",
      "name": "BeaconChainETHDeposited",
      "inputs": [
        {
          "name": "podOwner",
          "type": "address",
          "indexed": true,
          "internalType": "address"
        },
        {
          "name": "amount",
          "type": "uint256",
          "indexed": false,
          "internalType": "uint256"
        }
      ],
      "anonymous": false
    },
    {
      "type": "event",
      "name": "BeaconChainETHWithdrawalCompleted",
      "inputs": [
        {
          "name": "podOwner",
          "type": "address",
          "indexed": true,
          "internalType": "address"
        },
        {
          "name": "shares",
          "type": "uint256",
          "indexed": false,
          "internalType": "uint256"
        },
        {
          "name": "nonce",
          "type": "uint96",
          "indexed": false,
          "internalType": "uint96"
        },
        {
          "name": "delegatedAddress",
          "type": "address",
          "indexed": false,
          "internalType": "address"
        },
        {
          "name": "withdrawer",
          "type": "address",
          "indexed": false,
          "internalType": "address"
        },
        {
          "name": "withdrawalRoot",
          "type": "bytes32",
          "indexed": false,
          "internalType": "bytes32"
        }
      ],
      "anonymous": false
    },
    {
      "type": "event",
      "name": "BeaconChainSlashingFactorDecreased",
      "inputs": [
        {
          "name": "staker",
          "type": "address",
          "indexed": false,
          "internalType": "address"
        },
        {
          "name": "prevBeaconChainSlashingFactor",
          "type": "uint64",
          "indexed": false,
          "internalType": "uint64"
        },
        {
          "name": "newBeaconChainSlashingFactor",
          "type": "uint64",
          "indexed": false,
          "internalType": "uint64"
        }
      ],
      "anonymous": false
    },
    {
      "type": "event",
      "name": "BurnableETHSharesIncreased",
      "inputs": [
        {
          "name": "shares",
          "type": "uint256",
          "indexed": false,
          "internalType": "uint256"
        }
      ],
      "anonymous": false
    },
    {
      "type": "event",
      "name": "Initialized",
      "inputs": [
        {
          "name": "version",
          "type": "uint8",
          "indexed": false,
          "internalType": "uint8"
        }
      ],
      "anonymous": false
    },
    {
      "type": "event",
      "name": "NewTotalShares",
      "inputs": [
        {
          "name": "podOwner",
          "type": "address",
          "indexed": true,
          "internalType": "address"
        },
        {
          "name": "newTotalShares",
          "type": "int256",
          "indexed": false,
          "internalType": "int256"
        }
      ],
      "anonymous": false
    },
    {
      "type": "event",
      "name": "OwnershipTransferred",
      "inputs": [
        {
          "name": "previousOwner",
          "type": "address",
          "indexed": true,
          "internalType": "address"
        },
        {
          "name": "newOwner",
          "type": "address",
          "indexed": true,
          "internalType": "address"
        }
      ],
      "anonymous": false
    },
    {
      "type": "event",
      "name": "Paused",
      "inputs": [
        {
          "name": "account",
          "type": "address",
          "indexed": true,
          "internalType": "address"
        },
        {
          "name": "newPausedStatus",
          "type": "uint256",
          "indexed": false,
          "internalType": "uint256"
        }
      ],
      "anonymous": false
    },
    {
      "type": "event",
      "name": "PectraForkTimestampSet",
      "inputs": [
        {
          "name": "newPectraForkTimestamp",
          "type": "uint64",
          "indexed": false,
          "internalType": "uint64"
        }
      ],
      "anonymous": false
    },
    {
      "type": "event",
      "name": "PodDeployed",
      "inputs": [
        {
          "name": "eigenPod",
          "type": "address",
          "indexed": true,
          "internalType": "address"
        },
        {
          "name": "podOwner",
          "type": "address",
          "indexed": true,
          "internalType": "address"
        }
      ],
      "anonymous": false
    },
    {
      "type": "event",
      "name": "PodSharesUpdated",
      "inputs": [
        {
          "name": "podOwner",
          "type": "address",
          "indexed": true,
          "internalType": "address"
        },
        {
          "name": "sharesDelta",
          "type": "int256",
          "indexed": false,
          "internalType": "int256"
        }
      ],
      "anonymous": false
    },
    {
      "type": "event",
      "name": "ProofTimestampSetterSet",
      "inputs": [
        {
          "name": "newProofTimestampSetter",
          "type": "address",
          "indexed": false,
          "internalType": "address"
        }
      ],
      "anonymous": false
    },
    {
      "type": "event",
      "name": "Unpaused",
      "inputs": [
        {
          "name": "account",
          "type": "address",
          "indexed": true,
          "internalType": "address"
        },
        {
          "name": "newPausedStatus",
          "type": "uint256",
          "indexed": false,
          "internalType": "uint256"
        }
      ],
      "anonymous": false
    },
    {
      "type": "error",
      "name": "CurrentlyPaused",
      "inputs": []
    },
    {
      "type": "error",
      "name": "EigenPodAlreadyExists",
      "inputs": []
    },
    {
      "type": "error",
      "name": "InputAddressZero",
      "inputs": []
    },
    {
      "type": "error",
      "name": "InvalidNewPausedStatus",
      "inputs": []
    },
    {
      "type": "error",
      "name": "InvalidShortString",
      "inputs": []
    },
    {
      "type": "error",
      "name": "InvalidStrategy",
      "inputs": []
    },
    {
      "type": "error",
      "name": "LegacyWithdrawalsNotCompleted",
      "inputs": []
    },
    {
      "type": "error",
      "name": "OnlyDelegationManager",
      "inputs": []
    },
    {
      "type": "error",
      "name": "OnlyEigenPod",
      "inputs": []
    },
    {
      "type": "error",
      "name": "OnlyPauser",
      "inputs": []
    },
    {
      "type": "error",
      "name": "OnlyProofTimestampSetter",
      "inputs": []
    },
    {
      "type": "error",
      "name": "OnlyUnpauser",
      "inputs": []
    },
    {
      "type": "error",
      "name": "SharesNegative",
      "inputs": []
    },
    {
      "type": "error",
      "name": "SharesNotMultipleOfGwei",
      "inputs": []
    },
    {
      "type": "error",
      "name": "StringTooLong",
      "inputs": [
        {
          "name": "str",
          "type": "string",
          "internalType": "string"
        }
      ]
    }
  ],
  "bytecode": {
    "object": "0x610120604052348015610010575f5ffd5b50604051612f5b380380612f5b83398101604081905261002f916101c2565b80858585856001600160a01b03811661005b576040516339b190bb60e11b815260040160405180910390fd5b6001600160a01b0390811660805292831660a05290821660c0521660e05261008281610099565b610100525061008f6100df565b505050505061031a565b5f5f829050601f815111156100cc578260405163305a27a960e01b81526004016100c391906102bf565b60405180910390fd5b80516100d7826102f4565b179392505050565b5f54610100900460ff16156101465760405162461bcd60e51b815260206004820152602760248201527f496e697469616c697a61626c653a20636f6e747261637420697320696e697469604482015266616c697a696e6760c81b60648201526084016100c3565b5f5460ff90811614610195575f805460ff191660ff9081179091556040519081527f7f26b83ff96e1f2b6a682f133852f6798a09c465da95921460cefb38474024989060200160405180910390a15b565b6001600160a01b03811681146101ab575f5ffd5b50565b634e487b7160e01b5f52604160045260245ffd5b5f5f5f5f5f60a086880312156101d6575f5ffd5b85516101e181610197565b60208701519095506101f281610197565b604087015190945061020381610197565b606087015190935061021481610197565b60808701519092506001600160401b0381111561022f575f5ffd5b8601601f8101881361023f575f5ffd5b80516001600160401b03811115610258576102586101ae565b604051601f8201601f19908116603f011681016001600160401b0381118282101715610286576102866101ae565b6040528181528282016020018a101561029d575f5ffd5b8160208401602083015e5f602083830101528093505050509295509295909350565b602081525f82518060208401528060208501604085015e5f604082850101526040601f19601f83011684010191505092915050565b80516020808301519190811015610314575f198160200360031b1b821691505b50919050565b60805160a05160c05160e05161010051612bb76103a45f395f610b1b01525f818161060c0152818161081601528181610a7101528181610c970152818161105101528181611106015261139a01525f818161028b0152818161119c01526119b501525f61042c01525f81816104730152818161074b01528181610b5901526114ae0152612bb75ff3fe6080604052600436106101f1575f3560e01c80638da5cb5b11610108578063cd6dc6871161009d578063f2fde38b1161006d578063f2fde38b1461062e578063f5d4fed31461064d578063f6848d2414610662578063fabc1cbc1461069b578063fe243a17146106ba575f5ffd5b8063cd6dc68714610592578063d48e8894146105b1578063debe1eab146105dc578063ea4d3c9b146105fb575f5ffd5b8063a1ca780b116100d8578063a1ca780b14610520578063a38406a31461053f578063a3d75e091461055e578063a6a509be1461057d575f5ffd5b80638da5cb5b146104955780639104c319146104b25780639b4e4634146104d95780639ba06275146104ec575f5ffd5b8063595edbcb11610189578063715018a611610159578063715018a6146103e8578063724af423146103fc57806374cdd7981461041b57806384d810621461044e578063886f119514610462575f5ffd5b8063595edbcb1461034d5780635a26fbf41461036c5780635ac86ab71461038b5780635c975abb146103ca575f5ffd5b80632eae418c116101c45780632eae418c146102c557806350ff7225146102e457806354fd4d5014610318578063595c6a6714610339575f5ffd5b80630d1e9de1146101f5578063136439dd146102165780632704351a14610235578063292b7b2b1461027a575b5f5ffd5b348015610200575f5ffd5b5061021461020f366004611e1b565b6106d9565b005b348015610221575f5ffd5b50610214610230366004611e36565b610736565b348015610240575f5ffd5b50609f5461025c90600160a01b900467ffffffffffffffff1681565b60405167ffffffffffffffff90911681526020015b60405180910390f35b348015610285575f5ffd5b506102ad7f000000000000000000000000000000000000000000000000000000000000000081565b6040516001600160a01b039091168152602001610271565b3480156102d0575f5ffd5b506102146102df366004611e4d565b61080b565b3480156102ef575f5ffd5b506103036102fe366004611e9b565b610a64565b60408051928352602083019190915201610271565b348015610323575f5ffd5b5061032c610b14565b6040516102719190611ed9565b348015610344575f5ffd5b50610214610b44565b348015610358575f5ffd5b50609f546102ad906001600160a01b031681565b348015610377575f5ffd5b50610214610386366004611f0e565b610bf3565b348015610396575f5ffd5b506103ba6103a5366004611f35565b606654600160ff9092169190911b9081161490565b6040519015158152602001610271565b3480156103d5575f5ffd5b506066545b604051908152602001610271565b3480156103f3575f5ffd5b50610214610c7a565b348015610407575f5ffd5b506103da610416366004611e9b565b610c8b565b348015610426575f5ffd5b506102ad7f000000000000000000000000000000000000000000000000000000000000000081565b348015610459575f5ffd5b506102ad610dd0565b34801561046d575f5ffd5b506102ad7f000000000000000000000000000000000000000000000000000000000000000081565b3480156104a0575f5ffd5b506033546001600160a01b03166102ad565b3480156104bd575f5ffd5b506102ad73beac0eeeeeeeeeeeeeeeeeeeeeeeeeeeeeebeac081565b6102146104e7366004611f93565b610e52565b3480156104f7575f5ffd5b506102ad610506366004611e1b565b60986020525f90815260409020546001600160a01b031681565b34801561052b575f5ffd5b5061021461053a366004612006565b610f21565b34801561054a575f5ffd5b506102ad610559366004611e1b565b611142565b348015610569575f5ffd5b5061025c610578366004611e1b565b611213565b348015610588575f5ffd5b506103da60995481565b34801561059d575f5ffd5b506102146105ac366004612038565b611273565b3480156105bc575f5ffd5b506103da6105cb366004611e1b565b609b6020525f908152604090205481565b3480156105e7575f5ffd5b506102146105f6366004612038565b61138f565b348015610606575f5ffd5b506102ad7f000000000000000000000000000000000000000000000000000000000000000081565b348015610639575f5ffd5b50610214610648366004611e1b565b611433565b348015610658575f5ffd5b506103da609e5481565b34801561066d575f5ffd5b506103ba61067c366004611e1b565b6001600160a01b039081165f9081526098602052604090205416151590565b3480156106a6575f5ffd5b506102146106b5366004611e36565b6114ac565b3480156106c5575f5ffd5b506103da6106d4366004612062565b6115c2565b6106e1611642565b609f80546001600160a01b0319166001600160a01b0383169081179091556040519081527f7025c71a9fe60d709e71b377dc5f7c72c3e1d8539f8022574254e736ceca01e5906020015b60405180910390a150565b60405163237dfb4760e11b81523360048201527f00000000000000000000000000000000000000000000000000000000000000006001600160a01b0316906346fbf68e90602401602060405180830381865afa158015610798573d5f5f3e3d5ffd5b505050506040513d601f19601f820116820180604052508101906107bc9190612099565b6107d957604051631d77d47760e21b815260040160405180910390fd5b60665481811681146107fe5760405163c61dca5d60e01b815260040160405180910390fd5b6108078261169c565b5050565b336001600160a01b037f000000000000000000000000000000000000000000000000000000000000000016146108545760405163f739589b60e01b815260040160405180910390fd5b61085c6116d9565b6001600160a01b03831673beac0eeeeeeeeeeeeeeeeeeeeeeeeeeeeeebeac01461089957604051632711b74d60e11b815260040160405180910390fd5b6001600160a01b0384166108c0576040516339b190bb60e11b815260040160405180910390fd5b5f81136108e05760405163ef147de160e01b815260040160405180910390fd5b6001600160a01b0384165f908152609b60205260408120549082908212156109da575f61090c836120cc565b90505f8185111561092a57508061092381866120e6565b9250610930565b505f9150835b5f61093b82866120f9565b6001600160a01b038a165f818152609b60205260409081902083905551919250907f4e2b791dedccd9fb30141b088cabf5c14a8912b52f59375c95c010700b8c61939061098b9085815260200190565b60405180910390a2886001600160a01b03167fd4def76d6d2bed6f14d5cd9af73cc2913d618d00edde42432e81c09bfe077098826040516109ce91815260200190565b60405180910390a25050505b8015610a52576001600160a01b038681165f81815260986020526040908190205490516362483a2160e11b81526004810192909252602482018490529091169063c4907442906044015b5f604051808303815f87803b158015610a3b575f5ffd5b505af1158015610a4d573d5f5f3e3d5ffd5b505050505b5050610a5e600160c955565b50505050565b5f80336001600160a01b037f00000000000000000000000000000000000000000000000000000000000000001614610aaf5760405163f739589b60e01b815260040160405180910390fd5b610ab76116d9565b6001600160a01b03841673beac0eeeeeeeeeeeeeeeeeeeeeeeeeeeeeebeac014610af457604051632711b74d60e11b815260040160405180910390fd5b610afe8584611732565b91509150610b0c600160c955565b935093915050565b6060610b3f7f0000000000000000000000000000000000000000000000000000000000000000611879565b905090565b60405163237dfb4760e11b81523360048201527f00000000000000000000000000000000000000000000000000000000000000006001600160a01b0316906346fbf68e90602401602060405180830381865afa158015610ba6573d5f5f3e3d5ffd5b505050506040513d601f19601f82011682018060405250810190610bca9190612099565b610be757604051631d77d47760e21b815260040160405180910390fd5b610bf15f1961169c565b565b609f546001600160a01b03163314610c1e57604051630986113760e41b815260040160405180910390fd5b609f805467ffffffffffffffff60a01b1916600160a01b67ffffffffffffffff8416908102919091179091556040519081527f1bc8f042a52db3a437620dea4548f2031fb2a16dd8d3b0b854295528dd2cdd339060200161072b565b610c82611642565b610bf15f6118b6565b5f336001600160a01b037f00000000000000000000000000000000000000000000000000000000000000001614610cd55760405163f739589b60e01b815260040160405180910390fd5b610cdd6116d9565b6001600160a01b03831673beac0eeeeeeeeeeeeeeeeeeeeeeeeeeeeeebeac014610d1a57604051632711b74d60e11b815260040160405180910390fd5b5f610d2483611907565b6001600160a01b0386165f908152609b6020526040902054610d469190612120565b90505f811215610d695760405163ef147de160e01b815260040160405180910390fd5b6001600160a01b0385165f818152609b602052604090819020839055517fd4def76d6d2bed6f14d5cd9af73cc2913d618d00edde42432e81c09bfe07709890610db59084815260200190565b60405180910390a29050610dc9600160c955565b9392505050565b6066545f908190600190811603610dfa5760405163840a48d560e01b815260040160405180910390fd5b610e026116d9565b335f908152609860205260409020546001600160a01b031615610e385760405163031a852160e21b815260040160405180910390fd5b5f610e41611970565b925050610e4e600160c955565b5090565b6066545f90600190811603610e7a5760405163840a48d560e01b815260040160405180910390fd5b610e826116d9565b335f908152609860205260409020546001600160a01b031680610eaa57610ea7611970565b90505b6040516326d3918d60e21b81526001600160a01b03821690639b4e4634903490610ee0908b908b908b908b908b9060040161216e565b5f604051808303818588803b158015610ef7575f5ffd5b505af1158015610f09573d5f5f3e3d5ffd5b505050505050610f19600160c955565b505050505050565b6001600160a01b038084165f908152609860205260409020548491163314610f5c576040516312e16d7160e11b815260040160405180910390fd5b610f646116d9565b6001600160a01b038416610f8b576040516339b190bb60e11b815260040160405180910390fd5b610f99633b9aca00836121bb565b15610fb7576040516347d072bb60e11b815260040160405180910390fd5b6001600160a01b0384165f908152609b602052604081205490811215610ff057604051634b692bcf60e01b815260040160405180910390fd5b5f8313156110b1575f5f6110048786611732565b604051631e328e7960e11b81526001600160a01b038a8116600483015273beac0eeeeeeeeeeeeeeeeeeeeeeeeeeeeeebeac0602483015260448201849052606482018390529294509092507f000000000000000000000000000000000000000000000000000000000000000090911690633c651cf2906084015f604051808303815f87803b158015611094575f5ffd5b505af11580156110a6573d5f5f3e3d5ffd5b505050505050611137565b5f831215611137575f6110cd86866110c8876120cc565b611acb565b60405163305068e760e11b81526001600160a01b0388811660048301526024820185905267ffffffffffffffff831660448301529192507f0000000000000000000000000000000000000000000000000000000000000000909116906360a0d1ce90606401610a24565b50610a5e600160c955565b6001600160a01b038082165f908152609860205260408120549091168061120d5761120a836001600160a01b03165f1b60405180610940016040528061090e815260200161227461090e9139604080516001600160a01b037f0000000000000000000000000000000000000000000000000000000000000000166020820152808201919091525f606082015260800160408051601f19818403018152908290526111ef92916020016121f1565b60405160208183030381529060405280519060200120611bc4565b90505b92915050565b6001600160a01b0381165f908152609d6020908152604080832081518083019092525460ff8116151580835261010090910467ffffffffffffffff16928201929092529061126957670de0b6b3a7640000610dc9565b6020015192915050565b5f54610100900460ff161580801561129157505f54600160ff909116105b806112aa5750303b1580156112aa57505f5460ff166001145b6113125760405162461bcd60e51b815260206004820152602e60248201527f496e697469616c697a61626c653a20636f6e747261637420697320616c72656160448201526d191e481a5b9a5d1a585b1a5e995960921b60648201526084015b60405180910390fd5b5f805460ff191660011790558015611333575f805461ff0019166101001790555b61133c836118b6565b6113458261169c565b801561138a575f805461ff0019169055604051600181527f7f26b83ff96e1f2b6a682f133852f6798a09c465da95921460cefb38474024989060200160405180910390a15b505050565b336001600160a01b037f000000000000000000000000000000000000000000000000000000000000000016146113d85760405163f739589b60e01b815260040160405180910390fd5b6113e06116d9565b80609e5f8282546113f1919061220d565b90915550506040518181527f1ed04b7fd262c0d9e50fa02957f32a81a151f03baaa367faeedc7521b001c4a49060200160405180910390a1610807600160c955565b61143b611642565b6001600160a01b0381166114a05760405162461bcd60e51b815260206004820152602660248201527f4f776e61626c653a206e6577206f776e657220697320746865207a65726f206160448201526564647265737360d01b6064820152608401611309565b6114a9816118b6565b50565b7f00000000000000000000000000000000000000000000000000000000000000006001600160a01b031663eab66d7a6040518163ffffffff1660e01b8152600401602060405180830381865afa158015611508573d5f5f3e3d5ffd5b505050506040513d601f19601f8201168201806040525081019061152c9190612220565b6001600160a01b0316336001600160a01b03161461155d5760405163794821ff60e01b815260040160405180910390fd5b606654801982198116146115845760405163c61dca5d60e01b815260040160405180910390fd5b606682905560405182815233907f3582d1828e26bf56bd801502bc021ac0bc8afb57c826e4986b45593c8fad389c9060200160405180910390a25050565b5f6001600160a01b03821673beac0eeeeeeeeeeeeeeeeeeeeeeeeeeeeeebeac01461160057604051632711b74d60e11b815260040160405180910390fd5b6001600160a01b0383165f908152609b60205260408120541261163a576001600160a01b0383165f908152609b602052604090205461120a565b505f92915050565b6033546001600160a01b03163314610bf15760405162461bcd60e51b815260206004820181905260248201527f4f776e61626c653a2063616c6c6572206973206e6f7420746865206f776e65726044820152606401611309565b606681905560405181815233907fab40a374bc51de372200a8bc981af8c9ecdc08dfdaef0bb6e09f88f3c616ef3d9060200160405180910390a250565b600260c9540361172b5760405162461bcd60e51b815260206004820152601f60248201527f5265656e7472616e637947756172643a207265656e7472616e742063616c6c006044820152606401611309565b600260c955565b5f806001600160a01b03841661175b576040516339b190bb60e11b815260040160405180910390fd5b5f83121561177c5760405163ef147de160e01b815260040160405180910390fd5b6001600160a01b0384165f908152609b602052604081205484916117a083836120f9565b6001600160a01b0388165f818152609b60205260409081902083905551919250907f4e2b791dedccd9fb30141b088cabf5c14a8912b52f59375c95c010700b8c6193906117f09086815260200190565b60405180910390a2866001600160a01b03167fd4def76d6d2bed6f14d5cd9af73cc2913d618d00edde42432e81c09bfe0770988260405161183391815260200190565b60405180910390a25f8113611850575f5f94509450505050611872565b5f821215611865575f94509250611872915050565b5092508391506118729050565b9250929050565b60605f61188583611bd0565b6040805160208082528183019092529192505f91906020820181803683375050509182525060208101929092525090565b603380546001600160a01b038381166001600160a01b0319831681179093556040519116919082907f8be0079c531659141344cd1fd0a4f28419497f9722a3daafe3b4186f6b6457e0905f90a35050565b5f6001600160ff1b03821115610e4e5760405162461bcd60e51b815260206004820152602860248201527f53616665436173743a2076616c756520646f65736e27742066697420696e2061604482015267371034b73a191a9b60c11b6064820152608401611309565b5f60995f815461197f9061223b565b9091555060408051610940810190915261090e8082525f91611a1c91839133916122746020830139604080516001600160a01b037f0000000000000000000000000000000000000000000000000000000000000000166020820152808201919091525f606082015260800160408051601f1981840301815290829052611a0892916020016121f1565b604051602081830303815290604052611bf7565b60405163189acdbd60e31b81523360048201529091506001600160a01b0382169063c4d66de8906024015f604051808303815f87803b158015611a5d575f5ffd5b505af1158015611a6f573d5f5f3e3d5ffd5b5050335f8181526098602052604080822080546001600160a01b0319166001600160a01b038816908117909155905192945092507f21c99d0db02213c32fff5b05cf0a718ab5f858802b91498f80d82270289d856a91a3919050565b5f80611ad783856120e6565b90505f611ae386611213565b90505f611afb67ffffffffffffffff83168488611cf9565b90505f611b088284612253565b6040805180820182526001815267ffffffffffffffff85811660208084018281526001600160a01b038f165f818152609d845287902095518654925168ffffffffffffffffff1990931690151568ffffffffffffffff001916176101009286169290920291909117909455845193845291881691830191909152918101919091529091507fb160ab8589bf47dc04ea11b50d46678d21590cea2ed3e454e7bd3e41510f98cf9060600160405180910390a1979650505050505050565b5f61120a838330611dde565b5f60ff8216601f81111561120d57604051632cd44ac360e21b815260040160405180910390fd5b5f83471015611c485760405162461bcd60e51b815260206004820152601d60248201527f437265617465323a20696e73756666696369656e742062616c616e63650000006044820152606401611309565b81515f03611c985760405162461bcd60e51b815260206004820181905260248201527f437265617465323a2062797465636f6465206c656e677468206973207a65726f6044820152606401611309565b8282516020840186f590506001600160a01b038116610dc95760405162461bcd60e51b815260206004820152601960248201527f437265617465323a204661696c6564206f6e206465706c6f79000000000000006044820152606401611309565b5f80805f19858709858702925082811083820303915050805f03611d3057838281611d2657611d266121a7565b0492505050610dc9565b808411611d775760405162461bcd60e51b81526020600482015260156024820152744d6174683a206d756c446976206f766572666c6f7760581b6044820152606401611309565b5f8486880960026001871981018816978890046003810283188082028403028082028403028082028403028082028403028082028403029081029092039091025f889003889004909101858311909403939093029303949094049190911702949350505050565b5f604051836040820152846020820152828152600b8101905060ff815360559020949350505050565b6001600160a01b03811681146114a9575f5ffd5b5f60208284031215611e2b575f5ffd5b8135610dc981611e07565b5f60208284031215611e46575f5ffd5b5035919050565b5f5f5f5f60808587031215611e60575f5ffd5b8435611e6b81611e07565b93506020850135611e7b81611e07565b92506040850135611e8b81611e07565b9396929550929360600135925050565b5f5f5f60608486031215611ead575f5ffd5b8335611eb881611e07565b92506020840135611ec881611e07565b929592945050506040919091013590565b602081525f82518060208401528060208501604085015e5f604082850101526040601f19601f83011684010191505092915050565b5f60208284031215611f1e575f5ffd5b813567ffffffffffffffff81168114610dc9575f5ffd5b5f60208284031215611f45575f5ffd5b813560ff81168114610dc9575f5ffd5b5f5f83601f840112611f65575f5ffd5b50813567ffffffffffffffff811115611f7c575f5ffd5b602083019150836020828501011115611872575f5ffd5b5f5f5f5f5f60608688031215611fa7575f5ffd5b853567ffffffffffffffff811115611fbd575f5ffd5b611fc988828901611f55565b909650945050602086013567ffffffffffffffff811115611fe8575f5ffd5b611ff488828901611f55565b96999598509660400135949350505050565b5f5f5f60608486031215612018575f5ffd5b833561202381611e07565b95602085013595506040909401359392505050565b5f5f60408385031215612049575f5ffd5b823561205481611e07565b946020939093013593505050565b5f5f60408385031215612073575f5ffd5b823561207e81611e07565b9150602083013561208e81611e07565b809150509250929050565b5f602082840312156120a9575f5ffd5b81518015158114610dc9575f5ffd5b634e487b7160e01b5f52601160045260245ffd5b5f600160ff1b82016120e0576120e06120b8565b505f0390565b8181038181111561120d5761120d6120b8565b8082018281125f831280158216821582161715612118576121186120b8565b505092915050565b8181035f83128015838313168383128216171561213f5761213f6120b8565b5092915050565b81835281816020850137505f828201602090810191909152601f909101601f19169091010190565b606081525f612181606083018789612146565b8281036020840152612194818688612146565b9150508260408301529695505050505050565b634e487b7160e01b5f52601260045260245ffd5b5f826121d557634e487b7160e01b5f52601260045260245ffd5b500790565b5f81518060208401855e5f93019283525090919050565b5f6122056121ff83866121da565b846121da565b949350505050565b8082018082111561120d5761120d6120b8565b5f60208284031215612230575f5ffd5b8151610dc981611e07565b5f6001820161224c5761224c6120b8565b5060010190565b67ffffffffffffffff828116828216039081111561120d5761120d6120b856fe608060405260405161090e38038061090e83398101604081905261002291610460565b61002e82826000610035565b505061058a565b61003e83610100565b6040516001600160a01b038416907f1cf3b03a6cf19fa2baba4df148e9dcabedea7f8a5c07840e207e5c089be95d3e90600090a260008251118061007f5750805b156100fb576100f9836001600160a01b0316635c60da1b6040518163ffffffff1660e01b8152600401602060405180830381865afa1580156100c5573d6000803e3d6000fd5b505050506040513d601f19601f820116820180604052508101906100e99190610520565b836102a360201b6100291760201c565b505b505050565b610113816102cf60201b6100551760201c565b6101725760405162461bcd60e51b815260206004820152602560248201527f455243313936373a206e657720626561636f6e206973206e6f74206120636f6e6044820152641d1c9858dd60da1b60648201526084015b60405180910390fd5b6101e6816001600160a01b0316635c60da1b6040518163ffffffff1660e01b8152600401602060405180830381865afa1580156101b3573d6000803e3d6000fd5b505050506040513d601f19601f820116820180604052508101906101d79190610520565b6102cf60201b6100551760201c565b61024b5760405162461bcd60e51b815260206004820152603060248201527f455243313936373a20626561636f6e20696d706c656d656e746174696f6e206960448201526f1cc81b9bdd08184818dbdb9d1c9858dd60821b6064820152608401610169565b806102827fa3f0ad74e5423aebfd80d3ef4346578335a9a72aeaee59ff6cb3582b35133d5060001b6102de60201b6100641760201c565b80546001600160a01b0319166001600160a01b039290921691909117905550565b60606102c883836040518060600160405280602781526020016108e7602791396102e1565b9392505050565b6001600160a01b03163b151590565b90565b6060600080856001600160a01b0316856040516102fe919061053b565b600060405180830381855af49150503d8060008114610339576040519150601f19603f3d011682016040523d82523d6000602084013e61033e565b606091505b5090925090506103508683838761035a565b9695505050505050565b606083156103c65782516103bf576001600160a01b0385163b6103bf5760405162461bcd60e51b815260206004820152601d60248201527f416464726573733a2063616c6c20746f206e6f6e2d636f6e74726163740000006044820152606401610169565b50816103d0565b6103d083836103d8565b949350505050565b8151156103e85781518083602001fd5b8060405162461bcd60e51b81526004016101699190610557565b80516001600160a01b038116811461041957600080fd5b919050565b634e487b7160e01b600052604160045260246000fd5b60005b8381101561044f578181015183820152602001610437565b838111156100f95750506000910152565b6000806040838503121561047357600080fd5b61047c83610402565b60208401519092506001600160401b038082111561049957600080fd5b818501915085601f8301126104ad57600080fd5b8151818111156104bf576104bf61041e565b604051601f8201601f19908116603f011681019083821181831017156104e7576104e761041e565b8160405282815288602084870101111561050057600080fd5b610511836020830160208801610434565b80955050505050509250929050565b60006020828403121561053257600080fd5b6102c882610402565b6000825161054d818460208701610434565b9190910192915050565b6020815260008251806020840152610576816040850160208701610434565b601f01601f19169190910160400192915050565b61034e806105996000396000f3fe60806040523661001357610011610017565b005b6100115b610027610022610067565b610100565b565b606061004e83836040518060600160405280602781526020016102f260279139610124565b9392505050565b6001600160a01b03163b151590565b90565b600061009a7fa3f0ad74e5423aebfd80d3ef4346578335a9a72aeaee59ff6cb3582b35133d50546001600160a01b031690565b6001600160a01b0316635c60da1b6040518163ffffffff1660e01b8152600401602060405180830381865afa1580156100d7573d6000803e3d6000fd5b505050506040513d601f19601f820116820180604052508101906100fb9190610249565b905090565b3660008037600080366000845af43d6000803e80801561011f573d6000f35b3d6000fd5b6060600080856001600160a01b03168560405161014191906102a2565b600060405180830381855af49150503d806000811461017c576040519150601f19603f3d011682016040523d82523d6000602084013e610181565b606091505b50915091506101928683838761019c565b9695505050505050565b6060831561020d578251610206576001600160a01b0385163b6102065760405162461bcd60e51b815260206004820152601d60248201527f416464726573733a2063616c6c20746f206e6f6e2d636f6e747261637400000060448201526064015b60405180910390fd5b5081610217565b610217838361021f565b949350505050565b81511561022f5781518083602001fd5b8060405162461bcd60e51b81526004016101fd91906102be565b60006020828403121561025b57600080fd5b81516001600160a01b038116811461004e57600080fd5b60005b8381101561028d578181015183820152602001610275565b8381111561029c576000848401525b50505050565b600082516102b4818460208701610272565b9190910192915050565b60208152600082518060208401526102dd816040850160208701610272565b601f01601f1916919091016040019291505056fe416464726573733a206c6f772d6c6576656c2064656c65676174652063616c6c206661696c6564a2646970667358221220d51e81d3bc5ed20a26aeb05dce7e825c503b2061aa78628027300c8d65b9d89a64736f6c634300080c0033416464726573733a206c6f772d6c6576656c2064656c65676174652063616c6c206661696c6564a264697066735822122099cfbc0a725d5924a55da7ef5a29510b8080c3742013a79cb9cb9c68b634edb164736f6c634300081b0033",
    "linkReferences": {}
  },
  "methodIdentifiers": {
    "addShares(address,address,uint256)": "50ff7225",
    "beaconChainETHStrategy()": "9104c319",
    "beaconChainSlashingFactor(address)": "a3d75e09",
    "burnableETHShares()": "f5d4fed3",
    "createPod()": "84d81062",
    "delegationManager()": "ea4d3c9b",
    "eigenPodBeacon()": "292b7b2b",
    "ethPOS()": "74cdd798",
    "getPod(address)": "a38406a3",
    "hasPod(address)": "f6848d24",
    "increaseBurnableShares(address,uint256)": "debe1eab",
    "initialize(address,uint256)": "cd6dc687",
    "numPods()": "a6a509be",
    "owner()": "8da5cb5b",
    "ownerToPod(address)": "9ba06275",
    "pause(uint256)": "136439dd",
    "pauseAll()": "595c6a67",
    "paused()": "5c975abb",
    "paused(uint8)": "5ac86ab7",
    "pauserRegistry()": "886f1195",
    "pectraForkTimestamp()": "2704351a",
    "podOwnerDepositShares(address)": "d48e8894",
    "proofTimestampSetter()": "595edbcb",
    "recordBeaconChainETHBalanceUpdate(address,uint256,int256)": "a1ca780b",
    "removeDepositShares(address,address,uint256)": "724af423",
    "renounceOwnership()": "715018a6",
    "setPectraForkTimestamp(uint64)": "5a26fbf4",
    "setProofTimestampSetter(address)": "0d1e9de1",
    "stake(bytes,bytes,bytes32)": "9b4e4634",
    "stakerDepositShares(address,address)": "fe243a17",
    "transferOwnership(address)": "f2fde38b",
    "unpause(uint256)": "fabc1cbc",
    "version()": "54fd4d50",
    "withdrawSharesAsTokens(address,address,address,uint256)": "2eae418c"
  },
  "id": 161
}