{
  "abi": [
    {
      "type": "constructor",
      "inputs": [
        {
          "name": "_strategyManager",
          "type": "address",
          "internalType": "contract IStrategyManager"
        },
        {
          "name": "_eigenPodManager",
          "type": "address",
          "internalType": "contract IEigenPodManager"
        },
        {
          "name": "_allocationManager",
          "type": "address",
          "internalType": "contract IAllocationManager"
        },
        {
          "name": "_pauserRegistry",
          "type": "address",
          "internalType": "contract IPauserRegistry"
        },
        {
          "name": "_permissionController",
          "type": "address",
          "internalType": "contract IPermissionController"
        },
        {
          "name": "_MIN_WITHDRAWAL_DELAY",
          "type": "uint32",
          "internalType": "uint32"
        },
        {
          "name": "_version",
          "type": "string",
          "internalType": "string"
        }
      ],
      "stateMutability": "nonpayable"
    },
    {
      "type": "function",
      "name": "DELEGATION_APPROVAL_TYPEHASH",
      "inputs": [],
      "outputs": [
        {
          "name": "",
          "type": "bytes32",
          "internalType": "bytes32"
        }
      ],
      "stateMutability": "view"
    },
    {
      "type": "function",
      "name": "allocationManager",
      "inputs": [],
      "outputs": [
        {
          "name": "",
          "type": "address",
          "internalType": "contract IAllocationManager"
        }
      ],
      "stateMutability": "view"
    },
    {
      "type": "function",
      "name": "beaconChainETHStrategy",
      "inputs": [],
      "outputs": [
        {
          "name": "",
          "type": "address",
          "internalType": "contract IStrategy"
        }
      ],
      "stateMutability": "view"
    },
    {
      "type": "function",
      "name": "calculateDelegationApprovalDigestHash",
      "inputs": [
        {
          "name": "staker",
          "type": "address",
          "internalType": "address"
        },
        {
          "name": "operator",
          "type": "address",
          "internalType": "address"
        },
        {
          "name": "approver",
          "type": "address",
          "internalType": "address"
        },
        {
          "name": "approverSalt",
          "type": "bytes32",
          "internalType": "bytes32"
        },
        {
          "name": "expiry",
          "type": "uint256",
          "internalType": "uint256"
        }
      ],
      "outputs": [
        {
          "name": "",
          "type": "bytes32",
          "internalType": "bytes32"
        }
      ],
      "stateMutability": "view"
    },
    {
      "type": "function",
      "name": "calculateWithdrawalRoot",
      "inputs": [
        {
          "name": "withdrawal",
          "type": "tuple",
          "internalType": "struct IDelegationManagerTypes.Withdrawal",
          "components": [
            {
              "name": "staker",
              "type": "address",
              "internalType": "address"
            },
            {
              "name": "delegatedTo",
              "type": "address",
              "internalType": "address"
            },
            {
              "name": "withdrawer",
              "type": "address",
              "internalType": "address"
            },
            {
              "name": "nonce",
              "type": "uint256",
              "internalType": "uint256"
            },
            {
              "name": "startBlock",
              "type": "uint32",
              "internalType": "uint32"
            },
            {
              "name": "strategies",
              "type": "address[]",
              "internalType": "contract IStrategy[]"
            },
            {
              "name": "scaledShares",
              "type": "uint256[]",
              "internalType": "uint256[]"
            }
          ]
        }
      ],
      "outputs": [
        {
          "name": "",
          "type": "bytes32",
          "internalType": "bytes32"
        }
      ],
      "stateMutability": "pure"
    },
    {
      "type": "function",
      "name": "completeQueuedWithdrawal",
      "inputs": [
        {
          "name": "withdrawal",
          "type": "tuple",
          "internalType": "struct IDelegationManagerTypes.Withdrawal",
          "components": [
            {
              "name": "staker",
              "type": "address",
              "internalType": "address"
            },
            {
              "name": "delegatedTo",
              "type": "address",
              "internalType": "address"
            },
            {
              "name": "withdrawer",
              "type": "address",
              "internalType": "address"
            },
            {
              "name": "nonce",
              "type": "uint256",
              "internalType": "uint256"
            },
            {
              "name": "startBlock",
              "type": "uint32",
              "internalType": "uint32"
            },
            {
              "name": "strategies",
              "type": "address[]",
              "internalType": "contract IStrategy[]"
            },
            {
              "name": "scaledShares",
              "type": "uint256[]",
              "internalType": "uint256[]"
            }
          ]
        },
        {
          "name": "tokens",
          "type": "address[]",
          "internalType": "contract IERC20[]"
        },
        {
          "name": "receiveAsTokens",
          "type": "bool",
          "internalType": "bool"
        }
      ],
      "outputs": [],
      "stateMutability": "nonpayable"
    },
    {
      "type": "function",
      "name": "completeQueuedWithdrawals",
      "inputs": [
        {
          "name": "withdrawals",
          "type": "tuple[]",
          "internalType": "struct IDelegationManagerTypes.Withdrawal[]",
          "components": [
            {
              "name": "staker",
              "type": "address",
              "internalType": "address"
            },
            {
              "name": "delegatedTo",
              "type": "address",
              "internalType": "address"
            },
            {
              "name": "withdrawer",
              "type": "address",
              "internalType": "address"
            },
            {
              "name": "nonce",
              "type": "uint256",
              "internalType": "uint256"
            },
            {
              "name": "startBlock",
              "type": "uint32",
              "internalType": "uint32"
            },
            {
              "name": "strategies",
              "type": "address[]",
              "internalType": "contract IStrategy[]"
            },
            {
              "name": "scaledShares",
              "type": "uint256[]",
              "internalType": "uint256[]"
            }
          ]
        },
        {
          "name": "tokens",
          "type": "address[][]",
          "internalType": "contract IERC20[][]"
        },
        {
          "name": "receiveAsTokens",
          "type": "bool[]",
          "internalType": "bool[]"
        }
      ],
      "outputs": [],
      "stateMutability": "nonpayable"
    },
    {
      "type": "function",
      "name": "convertToDepositShares",
      "inputs": [
        {
          "name": "staker",
          "type": "address",
          "internalType": "address"
        },
        {
          "name": "strategies",
          "type": "address[]",
          "internalType": "contract IStrategy[]"
        },
        {
          "name": "withdrawableShares",
          "type": "uint256[]",
          "internalType": "uint256[]"
        }
      ],
      "outputs": [
        {
          "name": "",
          "type": "uint256[]",
          "internalType": "uint256[]"
        }
      ],
      "stateMutability": "view"
    },
    {
      "type": "function",
      "name": "cumulativeWithdrawalsQueued",
      "inputs": [
        {
          "name": "staker",
          "type": "address",
          "internalType": "address"
        }
      ],
      "outputs": [
        {
          "name": "totalQueued",
          "type": "uint256",
          "internalType": "uint256"
        }
      ],
      "stateMutability": "view"
    },
    {
      "type": "function",
      "name": "decreaseDelegatedShares",
      "inputs": [
        {
          "name": "staker",
          "type": "address",
          "internalType": "address"
        },
        {
          "name": "curDepositShares",
          "type": "uint256",
          "internalType": "uint256"
        },
        {
          "name": "beaconChainSlashingFactorDecrease",
          "type": "uint64",
          "internalType": "uint64"
        }
      ],
      "outputs": [],
      "stateMutability": "nonpayable"
    },
    {
      "type": "function",
      "name": "delegateTo",
      "inputs": [
        {
          "name": "operator",
          "type": "address",
          "internalType": "address"
        },
        {
          "name": "approverSignatureAndExpiry",
          "type": "tuple",
          "internalType": "struct ISignatureUtilsMixinTypes.SignatureWithExpiry",
          "components": [
            {
              "name": "signature",
              "type": "bytes",
              "internalType": "bytes"
            },
            {
              "name": "expiry",
              "type": "uint256",
              "internalType": "uint256"
            }
          ]
        },
        {
          "name": "approverSalt",
          "type": "bytes32",
          "internalType": "bytes32"
        }
      ],
      "outputs": [],
      "stateMutability": "nonpayable"
    },
    {
      "type": "function",
      "name": "delegatedTo",
      "inputs": [
        {
          "name": "staker",
          "type": "address",
          "internalType": "address"
        }
      ],
      "outputs": [
        {
          "name": "operator",
          "type": "address",
          "internalType": "address"
        }
      ],
      "stateMutability": "view"
    },
    {
      "type": "function",
      "name": "delegationApprover",
      "inputs": [
        {
          "name": "operator",
          "type": "address",
          "internalType": "address"
        }
      ],
      "outputs": [
        {
          "name": "",
          "type": "address",
          "internalType": "address"
        }
      ],
      "stateMutability": "view"
    },
    {
      "type": "function",
      "name": "delegationApproverSaltIsSpent",
      "inputs": [
        {
          "name": "delegationApprover",
          "type": "address",
          "internalType": "address"
        },
        {
          "name": "salt",
          "type": "bytes32",
          "internalType": "bytes32"
        }
      ],
      "outputs": [
        {
          "name": "spent",
          "type": "bool",
          "internalType": "bool"
        }
      ],
      "stateMutability": "view"
    },
    {
      "type": "function",
      "name": "depositScalingFactor",
      "inputs": [
        {
          "name": "staker",
          "type": "address",
          "internalType": "address"
        },
        {
          "name": "strategy",
          "type": "address",
          "internalType": "contract IStrategy"
        }
      ],
      "outputs": [
        {
          "name": "",
          "type": "uint256",
          "internalType": "uint256"
        }
      ],
      "stateMutability": "view"
    },
    {
      "type": "function",
      "name": "domainSeparator",
      "inputs": [],
      "outputs": [
        {
          "name": "",
          "type": "bytes32",
          "internalType": "bytes32"
        }
      ],
      "stateMutability": "view"
    },
    {
      "type": "function",
      "name": "eigenPodManager",
      "inputs": [],
      "outputs": [
        {
          "name": "",
          "type": "address",
          "internalType": "contract IEigenPodManager"
        }
      ],
      "stateMutability": "view"
    },
    {
      "type": "function",
      "name": "getDepositedShares",
      "inputs": [
        {
          "name": "staker",
          "type": "address",
          "internalType": "address"
        }
      ],
      "outputs": [
        {
          "name": "",
          "type": "address[]",
          "internalType": "contract IStrategy[]"
        },
        {
          "name": "",
          "type": "uint256[]",
          "internalType": "uint256[]"
        }
      ],
      "stateMutability": "view"
    },
    {
      "type": "function",
      "name": "getOperatorShares",
      "inputs": [
        {
          "name": "operator",
          "type": "address",
          "internalType": "address"
        },
        {
          "name": "strategies",
          "type": "address[]",
          "internalType": "contract IStrategy[]"
        }
      ],
      "outputs": [
        {
          "name": "",
          "type": "uint256[]",
          "internalType": "uint256[]"
        }
      ],
      "stateMutability": "view"
    },
    {
      "type": "function",
      "name": "getOperatorsShares",
      "inputs": [
        {
          "name": "operators",
          "type": "address[]",
          "internalType": "address[]"
        },
        {
          "name": "strategies",
          "type": "address[]",
          "internalType": "contract IStrategy[]"
        }
      ],
      "outputs": [
        {
          "name": "",
          "type": "uint256[][]",
          "internalType": "uint256[][]"
        }
      ],
      "stateMutability": "view"
    },
    {
      "type": "function",
      "name": "getQueuedWithdrawal",
      "inputs": [
        {
          "name": "withdrawalRoot",
          "type": "bytes32",
          "internalType": "bytes32"
        }
      ],
      "outputs": [
        {
          "name": "withdrawal",
          "type": "tuple",
          "internalType": "struct IDelegationManagerTypes.Withdrawal",
          "components": [
            {
              "name": "staker",
              "type": "address",
              "internalType": "address"
            },
            {
              "name": "delegatedTo",
              "type": "address",
              "internalType": "address"
            },
            {
              "name": "withdrawer",
              "type": "address",
              "internalType": "address"
            },
            {
              "name": "nonce",
              "type": "uint256",
              "internalType": "uint256"
            },
            {
              "name": "startBlock",
              "type": "uint32",
              "internalType": "uint32"
            },
            {
              "name": "strategies",
              "type": "address[]",
              "internalType": "contract IStrategy[]"
            },
            {
              "name": "scaledShares",
              "type": "uint256[]",
              "internalType": "uint256[]"
            }
          ]
        },
        {
          "name": "shares",
          "type": "uint256[]",
          "internalType": "uint256[]"
        }
      ],
      "stateMutability": "view"
    },
    {
      "type": "function",
      "name": "getQueuedWithdrawalRoots",
      "inputs": [
        {
          "name": "staker",
          "type": "address",
          "internalType": "address"
        }
      ],
      "outputs": [
        {
          "name": "",
          "type": "bytes32[]",
          "internalType": "bytes32[]"
        }
      ],
      "stateMutability": "view"
    },
    {
      "type": "function",
      "name": "getQueuedWithdrawals",
      "inputs": [
        {
          "name": "staker",
          "type": "address",
          "internalType": "address"
        }
      ],
      "outputs": [
        {
          "name": "withdrawals",
          "type": "tuple[]",
          "internalType": "struct IDelegationManagerTypes.Withdrawal[]",
          "components": [
            {
              "name": "staker",
              "type": "address",
              "internalType": "address"
            },
            {
              "name": "delegatedTo",
              "type": "address",
              "internalType": "address"
            },
            {
              "name": "withdrawer",
              "type": "address",
              "internalType": "address"
            },
            {
              "name": "nonce",
              "type": "uint256",
              "internalType": "uint256"
            },
            {
              "name": "startBlock",
              "type": "uint32",
              "internalType": "uint32"
            },
            {
              "name": "strategies",
              "type": "address[]",
              "internalType": "contract IStrategy[]"
            },
            {
              "name": "scaledShares",
              "type": "uint256[]",
              "internalType": "uint256[]"
            }
          ]
        },
        {
          "name": "shares",
          "type": "uint256[][]",
          "internalType": "uint256[][]"
        }
      ],
      "stateMutability": "view"
    },
    {
      "type": "function",
      "name": "getSlashableSharesInQueue",
      "inputs": [
        {
          "name": "operator",
          "type": "address",
          "internalType": "address"
        },
        {
          "name": "strategy",
          "type": "address",
          "internalType": "contract IStrategy"
        }
      ],
      "outputs": [
        {
          "name": "",
          "type": "uint256",
          "internalType": "uint256"
        }
      ],
      "stateMutability": "view"
    },
    {
      "type": "function",
      "name": "getWithdrawableShares",
      "inputs": [
        {
          "name": "staker",
          "type": "address",
          "internalType": "address"
        },
        {
          "name": "strategies",
          "type": "address[]",
          "internalType": "contract IStrategy[]"
        }
      ],
      "outputs": [
        {
          "name": "withdrawableShares",
          "type": "uint256[]",
          "internalType": "uint256[]"
        },
        {
          "name": "depositShares",
          "type": "uint256[]",
          "internalType": "uint256[]"
        }
      ],
      "stateMutability": "view"
    },
    {
      "type": "function",
      "name": "increaseDelegatedShares",
      "inputs": [
        {
          "name": "staker",
          "type": "address",
          "internalType": "address"
        },
        {
          "name": "strategy",
          "type": "address",
          "internalType": "contract IStrategy"
        },
        {
          "name": "prevDepositShares",
          "type": "uint256",
          "internalType": "uint256"
        },
        {
          "name": "addedShares",
          "type": "uint256",
          "internalType": "uint256"
        }
      ],
      "outputs": [],
      "stateMutability": "nonpayable"
    },
    {
      "type": "function",
      "name": "initialize",
      "inputs": [
        {
          "name": "initialOwner",
          "type": "address",
          "internalType": "address"
        },
        {
          "name": "initialPausedStatus",
          "type": "uint256",
          "internalType": "uint256"
        }
      ],
      "outputs": [],
      "stateMutability": "nonpayable"
    },
    {
      "type": "function",
      "name": "isDelegated",
      "inputs": [
        {
          "name": "staker",
          "type": "address",
          "internalType": "address"
        }
      ],
      "outputs": [
        {
          "name": "",
          "type": "bool",
          "internalType": "bool"
        }
      ],
      "stateMutability": "view"
    },
    {
      "type": "function",
      "name": "isOperator",
      "inputs": [
        {
          "name": "operator",
          "type": "address",
          "internalType": "address"
        }
      ],
      "outputs": [
        {
          "name": "",
          "type": "bool",
          "internalType": "bool"
        }
      ],
      "stateMutability": "view"
    },
    {
      "type": "function",
      "name": "minWithdrawalDelayBlocks",
      "inputs": [],
      "outputs": [
        {
          "name": "",
          "type": "uint32",
          "internalType": "uint32"
        }
      ],
      "stateMutability": "view"
    },
    {
      "type": "function",
      "name": "modifyOperatorDetails",
      "inputs": [
        {
          "name": "operator",
          "type": "address",
          "internalType": "address"
        },
        {
          "name": "newDelegationApprover",
          "type": "address",
          "internalType": "address"
        }
      ],
      "outputs": [],
      "stateMutability": "nonpayable"
    },
    {
      "type": "function",
      "name": "operatorShares",
      "inputs": [
        {
          "name": "operator",
          "type": "address",
          "internalType": "address"
        },
        {
          "name": "strategy",
          "type": "address",
          "internalType": "contract IStrategy"
        }
      ],
      "outputs": [
        {
          "name": "shares",
          "type": "uint256",
          "internalType": "uint256"
        }
      ],
      "stateMutability": "view"
    },
    {
      "type": "function",
      "name": "owner",
      "inputs": [],
      "outputs": [
        {
          "name": "",
          "type": "address",
          "internalType": "address"
        }
      ],
      "stateMutability": "view"
    },
    {
      "type": "function",
      "name": "pause",
      "inputs": [
        {
          "name": "newPausedStatus",
          "type": "uint256",
          "internalType": "uint256"
        }
      ],
      "outputs": [],
      "stateMutability": "nonpayable"
    },
    {
      "type": "function",
      "name": "pauseAll",
      "inputs": [],
      "outputs": [],
      "stateMutability": "nonpayable"
    },
    {
      "type": "function",
      "name": "paused",
      "inputs": [
        {
          "name": "index",
          "type": "uint8",
          "internalType": "uint8"
        }
      ],
      "outputs": [
        {
          "name": "",
          "type": "bool",
          "internalType": "bool"
        }
      ],
      "stateMutability": "view"
    },
    {
      "type": "function",
      "name": "paused",
      "inputs": [],
      "outputs": [
        {
          "name": "",
          "type": "uint256",
          "internalType": "uint256"
        }
      ],
      "stateMutability": "view"
    },
    {
      "type": "function",
      "name": "pauserRegistry",
      "inputs": [],
      "outputs": [
        {
          "name": "",
          "type": "address",
          "internalType": "contract IPauserRegistry"
        }
      ],
      "stateMutability": "view"
    },
    {
      "type": "function",
      "name": "pendingWithdrawals",
      "inputs": [
        {
          "name": "withdrawalRoot",
          "type": "bytes32",
          "internalType": "bytes32"
        }
      ],
      "outputs": [
        {
          "name": "pending",
          "type": "bool",
          "internalType": "bool"
        }
      ],
      "stateMutability": "view"
    },
    {
      "type": "function",
      "name": "permissionController",
      "inputs": [],
      "outputs": [
        {
          "name": "",
          "type": "address",
          "internalType": "contract IPermissionController"
        }
      ],
      "stateMutability": "view"
    },
    {
      "type": "function",
      "name": "queueWithdrawals",
      "inputs": [
        {
          "name": "params",
          "type": "tuple[]",
          "internalType": "struct IDelegationManagerTypes.QueuedWithdrawalParams[]",
          "components": [
            {
              "name": "strategies",
              "type": "address[]",
              "internalType": "contract IStrategy[]"
            },
            {
              "name": "depositShares",
              "type": "uint256[]",
              "internalType": "uint256[]"
            },
            {
              "name": "__deprecated_withdrawer",
              "type": "address",
              "internalType": "address"
            }
          ]
        }
      ],
      "outputs": [
        {
          "name": "",
          "type": "bytes32[]",
          "internalType": "bytes32[]"
        }
      ],
      "stateMutability": "nonpayable"
    },
    {
      "type": "function",
      "name": "queuedWithdrawals",
      "inputs": [
        {
          "name": "withdrawalRoot",
          "type": "bytes32",
          "internalType": "bytes32"
        }
      ],
      "outputs": [
        {
          "name": "withdrawal",
          "type": "tuple",
          "internalType": "struct IDelegationManagerTypes.Withdrawal",
          "components": [
            {
              "name": "staker",
              "type": "address",
              "internalType": "address"
            },
            {
              "name": "delegatedTo",
              "type": "address",
              "internalType": "address"
            },
            {
              "name": "withdrawer",
              "type": "address",
              "internalType": "address"
            },
            {
              "name": "nonce",
              "type": "uint256",
              "internalType": "uint256"
            },
            {
              "name": "startBlock",
              "type": "uint32",
              "internalType": "uint32"
            },
            {
              "name": "strategies",
              "type": "address[]",
              "internalType": "contract IStrategy[]"
            },
            {
              "name": "scaledShares",
              "type": "uint256[]",
              "internalType": "uint256[]"
            }
          ]
        }
      ],
      "stateMutability": "view"
    },
    {
      "type": "function",
      "name": "redelegate",
      "inputs": [
        {
          "name": "newOperator",
          "type": "address",
          "internalType": "address"
        },
        {
          "name": "newOperatorApproverSig",
          "type": "tuple",
          "internalType": "struct ISignatureUtilsMixinTypes.SignatureWithExpiry",
          "components": [
            {
              "name": "signature",
              "type": "bytes",
              "internalType": "bytes"
            },
            {
              "name": "expiry",
              "type": "uint256",
              "internalType": "uint256"
            }
          ]
        },
        {
          "name": "approverSalt",
          "type": "bytes32",
          "internalType": "bytes32"
        }
      ],
      "outputs": [
        {
          "name": "withdrawalRoots",
          "type": "bytes32[]",
          "internalType": "bytes32[]"
        }
      ],
      "stateMutability": "nonpayable"
    },
    {
      "type": "function",
      "name": "registerAsOperator",
      "inputs": [
        {
          "name": "initDelegationApprover",
          "type": "address",
          "internalType": "address"
        },
        {
          "name": "allocationDelay",
          "type": "uint32",
          "internalType": "uint32"
        },
        {
          "name": "metadataURI",
          "type": "string",
          "internalType": "string"
        }
      ],
      "outputs": [],
      "stateMutability": "nonpayable"
    },
    {
      "type": "function",
      "name": "renounceOwnership",
      "inputs": [],
      "outputs": [],
      "stateMutability": "nonpayable"
    },
    {
      "type": "function",
      "name": "slashOperatorShares",
      "inputs": [
        {
          "name": "operator",
          "type": "address",
          "internalType": "address"
        },
        {
          "name": "strategy",
          "type": "address",
          "internalType": "contract IStrategy"
        },
        {
          "name": "prevMaxMagnitude",
          "type": "uint64",
          "internalType": "uint64"
        },
        {
          "name": "newMaxMagnitude",
          "type": "uint64",
          "internalType": "uint64"
        }
      ],
      "outputs": [],
      "stateMutability": "nonpayable"
    },
    {
      "type": "function",
      "name": "strategyManager",
      "inputs": [],
      "outputs": [
        {
          "name": "",
          "type": "address",
          "internalType": "contract IStrategyManager"
        }
      ],
      "stateMutability": "view"
    },
    {
      "type": "function",
      "name": "transferOwnership",
      "inputs": [
        {
          "name": "newOwner",
          "type": "address",
          "internalType": "address"
        }
      ],
      "outputs": [],
      "stateMutability": "nonpayable"
    },
    {
      "type": "function",
      "name": "undelegate",
      "inputs": [
        {
          "name": "staker",
          "type": "address",
          "internalType": "address"
        }
      ],
      "outputs": [
        {
          "name": "withdrawalRoots",
          "type": "bytes32[]",
          "internalType": "bytes32[]"
        }
      ],
      "stateMutability": "nonpayable"
    },
    {
      "type": "function",
      "name": "unpause",
      "inputs": [
        {
          "name": "newPausedStatus",
          "type": "uint256",
          "internalType": "uint256"
        }
      ],
      "outputs": [],
      "stateMutability": "nonpayable"
    },
    {
      "type": "function",
      "name": "updateOperatorMetadataURI",
      "inputs": [
        {
          "name": "operator",
          "type": "address",
          "internalType": "address"
        },
        {
          "name": "metadataURI",
          "type": "string",
          "internalType": "string"
        }
      ],
      "outputs": [],
      "stateMutability": "nonpayable"
    },
    {
      "type": "function",
      "name": "version",
      "inputs": [],
      "outputs": [
        {
          "name": "",
          "type": "string",
          "internalType": "string"
        }
      ],
      "stateMutability": "view"
    },
    {
      "type": "event",
      "name": "DelegationApproverUpdated",
      "inputs": [
        {
          "name": "operator",
          "type": "address",
          "indexed": true,
          "internalType": "address"
        },
        {
          "name": "newDelegationApprover",
          "type": "address",
          "indexed": false,
          "internalType": "address"
        }
      ],
      "anonymous": false
    },
    {
      "type": "event",
      "name": "DepositScalingFactorUpdated",
      "inputs": [
        {
          "name": "staker",
          "type": "address",
          "indexed": false,
          "internalType": "address"
        },
        {
          "name": "strategy",
          "type": "address",
          "indexed": false,
          "internalType": "contract IStrategy"
        },
        {
          "name": "newDepositScalingFactor",
          "type": "uint256",
          "indexed": false,
          "internalType": "uint256"
        }
      ],
      "anonymous": false
    },
    {
      "type": "event",
      "name": "Initialized",
      "inputs": [
        {
          "name": "version",
          "type": "uint8",
          "indexed": false,
          "internalType": "uint8"
        }
      ],
      "anonymous": false
    },
    {
      "type": "event",
      "name": "OperatorMetadataURIUpdated",
      "inputs": [
        {
          "name": "operator",
          "type": "address",
          "indexed": true,
          "internalType": "address"
        },
        {
          "name": "metadataURI",
          "type": "string",
          "indexed": false,
          "internalType": "string"
        }
      ],
      "anonymous": false
    },
    {
      "type": "event",
      "name": "OperatorRegistered",
      "inputs": [
        {
          "name": "operator",
          "type": "address",
          "indexed": true,
          "internalType": "address"
        },
        {
          "name": "delegationApprover",
          "type": "address",
          "indexed": false,
          "internalType": "address"
        }
      ],
      "anonymous": false
    },
    {
      "type": "event",
      "name": "OperatorSharesDecreased",
      "inputs": [
        {
          "name": "operator",
          "type": "address",
          "indexed": true,
          "internalType": "address"
        },
        {
          "name": "staker",
          "type": "address",
          "indexed": false,
          "internalType": "address"
        },
        {
          "name": "strategy",
          "type": "address",
          "indexed": false,
          "internalType": "contract IStrategy"
        },
        {
          "name": "shares",
          "type": "uint256",
          "indexed": false,
          "internalType": "uint256"
        }
      ],
      "anonymous": false
    },
    {
      "type": "event",
      "name": "OperatorSharesIncreased",
      "inputs": [
        {
          "name": "operator",
          "type": "address",
          "indexed": true,
          "internalType": "address"
        },
        {
          "name": "staker",
          "type": "address",
          "indexed": false,
          "internalType": "address"
        },
        {
          "name": "strategy",
          "type": "address",
          "indexed": false,
          "internalType": "contract IStrategy"
        },
        {
          "name": "shares",
          "type": "uint256",
          "indexed": false,
          "internalType": "uint256"
        }
      ],
      "anonymous": false
    },
    {
      "type": "event",
      "name": "OperatorSharesSlashed",
      "inputs": [
        {
          "name": "operator",
          "type": "address",
          "indexed": true,
          "internalType": "address"
        },
        {
          "name": "strategy",
          "type": "address",
          "indexed": false,
          "internalType": "contract IStrategy"
        },
        {
          "name": "totalSlashedShares",
          "type": "uint256",
          "indexed": false,
          "internalType": "uint256"
        }
      ],
      "anonymous": false
    },
    {
      "type": "event",
      "name": "OwnershipTransferred",
      "inputs": [
        {
          "name": "previousOwner",
          "type": "address",
          "indexed": true,
          "internalType": "address"
        },
        {
          "name": "newOwner",
          "type": "address",
          "indexed": true,
          "internalType": "address"
        }
      ],
      "anonymous": false
    },
    {
      "type": "event",
      "name": "Paused",
      "inputs": [
        {
          "name": "account",
          "type": "address",
          "indexed": true,
          "internalType": "address"
        },
        {
          "name": "newPausedStatus",
          "type": "uint256",
          "indexed": false,
          "internalType": "uint256"
        }
      ],
      "anonymous": false
    },
    {
      "type": "event",
      "name": "SlashingWithdrawalCompleted",
      "inputs": [
        {
          "name": "withdrawalRoot",
          "type": "bytes32",
          "indexed": false,
          "internalType": "bytes32"
        }
      ],
      "anonymous": false
    },
    {
      "type": "event",
      "name": "SlashingWithdrawalQueued",
      "inputs": [
        {
          "name": "withdrawalRoot",
          "type": "bytes32",
          "indexed": false,
          "internalType": "bytes32"
        },
        {
          "name": "withdrawal",
          "type": "tuple",
          "indexed": false,
          "internalType": "struct IDelegationManagerTypes.Withdrawal",
          "components": [
            {
              "name": "staker",
              "type": "address",
              "internalType": "address"
            },
            {
              "name": "delegatedTo",
              "type": "address",
              "internalType": "address"
            },
            {
              "name": "withdrawer",
              "type": "address",
              "internalType": "address"
            },
            {
              "name": "nonce",
              "type": "uint256",
              "internalType": "uint256"
            },
            {
              "name": "startBlock",
              "type": "uint32",
              "internalType": "uint32"
            },
            {
              "name": "strategies",
              "type": "address[]",
              "internalType": "contract IStrategy[]"
            },
            {
              "name": "scaledShares",
              "type": "uint256[]",
              "internalType": "uint256[]"
            }
          ]
        },
        {
          "name": "sharesToWithdraw",
          "type": "uint256[]",
          "indexed": false,
          "internalType": "uint256[]"
        }
      ],
      "anonymous": false
    },
    {
      "type": "event",
      "name": "StakerDelegated",
      "inputs": [
        {
          "name": "staker",
          "type": "address",
          "indexed": true,
          "internalType": "address"
        },
        {
          "name": "operator",
          "type": "address",
          "indexed": true,
          "internalType": "address"
        }
      ],
      "anonymous": false
    },
    {
      "type": "event",
      "name": "StakerForceUndelegated",
      "inputs": [
        {
          "name": "staker",
          "type": "address",
          "indexed": true,
          "internalType": "address"
        },
        {
          "name": "operator",
          "type": "address",
          "indexed": true,
          "internalType": "address"
        }
      ],
      "anonymous": false
    },
    {
      "type": "event",
      "name": "StakerUndelegated",
      "inputs": [
        {
          "name": "staker",
          "type": "address",
          "indexed": true,
          "internalType": "address"
        },
        {
          "name": "operator",
          "type": "address",
          "indexed": true,
          "internalType": "address"
        }
      ],
      "anonymous": false
    },
    {
      "type": "event",
      "name": "Unpaused",
      "inputs": [
        {
          "name": "account",
          "type": "address",
          "indexed": true,
          "internalType": "address"
        },
        {
          "name": "newPausedStatus",
          "type": "uint256",
          "indexed": false,
          "internalType": "uint256"
        }
      ],
      "anonymous": false
    },
    {
      "type": "error",
      "name": "ActivelyDelegated",
      "inputs": []
    },
    {
      "type": "error",
      "name": "CallerCannotUndelegate",
      "inputs": []
    },
    {
      "type": "error",
      "name": "CurrentlyPaused",
      "inputs": []
    },
    {
      "type": "error",
      "name": "FullySlashed",
      "inputs": []
    },
    {
      "type": "error",
      "name": "InputAddressZero",
      "inputs": []
    },
    {
      "type": "error",
      "name": "InputArrayLengthMismatch",
      "inputs": []
    },
    {
      "type": "error",
      "name": "InputArrayLengthZero",
      "inputs": []
    },
    {
      "type": "error",
      "name": "InvalidNewPausedStatus",
      "inputs": []
    },
    {
      "type": "error",
      "name": "InvalidPermissions",
      "inputs": []
    },
    {
      "type": "error",
      "name": "InvalidShortString",
      "inputs": []
    },
    {
      "type": "error",
      "name": "InvalidSignature",
      "inputs": []
    },
    {
      "type": "error",
      "name": "InvalidSnapshotOrdering",
      "inputs": []
    },
    {
      "type": "error",
      "name": "NotActivelyDelegated",
      "inputs": []
    },
    {
      "type": "error",
      "name": "OnlyAllocationManager",
      "inputs": []
    },
    {
      "type": "error",
      "name": "OnlyEigenPodManager",
      "inputs": []
    },
    {
      "type": "error",
      "name": "OnlyPauser",
      "inputs": []
    },
    {
      "type": "error",
      "name": "OnlyStrategyManagerOrEigenPodManager",
      "inputs": []
    },
    {
      "type": "error",
      "name": "OnlyUnpauser",
      "inputs": []
    },
    {
      "type": "error",
      "name": "OperatorNotRegistered",
      "inputs": []
    },
    {
      "type": "error",
      "name": "OperatorsCannotUndelegate",
      "inputs": []
    },
    {
      "type": "error",
      "name": "SaltSpent",
      "inputs": []
    },
    {
      "type": "error",
      "name": "SignatureExpired",
      "inputs": []
    },
    {
      "type": "error",
      "name": "StringTooLong",
      "inputs": [
        {
          "name": "str",
          "type": "string",
          "internalType": "string"
        }
      ]
    },
    {
      "type": "error",
      "name": "WithdrawalDelayNotElapsed",
      "inputs": []
    },
    {
      "type": "error",
      "name": "WithdrawalNotQueued",
      "inputs": []
    },
    {
      "type": "error",
      "name": "WithdrawerNotCaller",
      "inputs": []
    }
  ],
  "bytecode": {
    "object": "0x610160604052348015610010575f5ffd5b506040516162ad3803806162ad83398101604081905261002f916101d9565b808084898989878a6001600160a01b03811661005e576040516339b190bb60e11b815260040160405180910390fd5b6001600160a01b0390811660805293841660a05291831660c052821660e05263ffffffff16610100521661012052610095816100b0565b61014052506100a490506100f6565b50505050505050610364565b5f5f829050601f815111156100e3578260405163305a27a960e01b81526004016100da9190610309565b60405180910390fd5b80516100ee8261033e565b179392505050565b5f54610100900460ff161561015d5760405162461bcd60e51b815260206004820152602760248201527f496e697469616c697a61626c653a20636f6e747261637420697320696e697469604482015266616c697a696e6760c81b60648201526084016100da565b5f5460ff908116146101ac575f805460ff191660ff9081179091556040519081527f7f26b83ff96e1f2b6a682f133852f6798a09c465da95921460cefb38474024989060200160405180910390a15b565b6001600160a01b03811681146101c2575f5ffd5b50565b634e487b7160e01b5f52604160045260245ffd5b5f5f5f5f5f5f5f60e0888a0312156101ef575f5ffd5b87516101fa816101ae565b602089015190975061020b816101ae565b604089015190965061021c816101ae565b606089015190955061022d816101ae565b608089015190945061023e816101ae565b60a089015190935063ffffffff81168114610257575f5ffd5b60c08901519092506001600160401b03811115610272575f5ffd5b88015f601f82018b13610283575f5ffd5b81516001600160401b0381111561029c5761029c6101c5565b604051601f8201601f19908116603f011681016001600160401b03811182821017156102ca576102ca6101c5565b6040528181528382016020018d10156102e1575f5ffd5b8160208501602083015e5f602083830101528092508094505050505092959891949750929550565b602081525f82518060208401528060208501604085015e5f604082850101526040601f19601f83011684010191505092915050565b8051602080830151919081101561035e575f198160200360031b1b821691505b50919050565b60805160a05160c05160e051610100516101205161014051615e5061045d5f395f8181611112015261412c01525f8181610460015261340b01525f818161076a0152818161361b0152818161375d0152613a4001525f81816107ba01528181610e2701528181610fea0152818161136b01528181611584015281816119e6015281816127a0015261435601525f818161048701528181610f68015281816114e3015281816117570152818161300c015281816131ed01526138a301525f81816103bd01528181610f36015281816116ab015261387d01525f818161063801528181610bb70152818161115001526125960152615e505ff3fe608060405234801561000f575f5ffd5b50600436106102ff575f3560e01c8063715018a611610195578063bfae3fd2116100e4578063e4cc3f901161009e578063f2fde38b11610079578063f2fde38b14610848578063f698da251461085b578063fabc1cbc14610863578063fd8aa88d14610876575f5ffd5b8063e4cc3f9014610802578063eea9064b14610815578063f0e0e67614610828575f5ffd5b8063bfae3fd21461074d578063c448feb814610760578063c978f7ac14610794578063ca8aa7c7146107b5578063cd6dc687146107dc578063da8be864146107ef575f5ffd5b80639104c3191161014f578063a17884841161012a578063a1788484146106cc578063a33a3433146106eb578063b7f06ebe146106fe578063bb45fef214610720575f5ffd5b80639104c3191461067e5780639435bb431461069957806399f5371b146106ac575f5ffd5b8063715018a6146105ee578063778e55f3146105f657806378296ec514610620578063886f1195146106335780638da5cb5b1461065a578063900413471461066b575f5ffd5b806354fd4d50116102515780635dd685791161020b57806365da1264116101e657806365da12641461057f57806366d5ba93146105a75780636d70f7ae146105c85780636e174448146105db575f5ffd5b80635dd6857914610538578063601bb36f1461055957806360a0d1ce1461056c575f5ffd5b806354fd4d50146104bc578063595c6a67146104d1578063597b36da146104d95780635ac86ab7146104ec5780635c975abb1461050f5780635d975e8814610517575f5ffd5b806339b70e38116102bc5780633e28391d116102975780633e28391d146104385780634657e26a1461045b5780634665bcda1461048257806354b7c96c146104a9575f5ffd5b806339b70e38146103b85780633c651cf2146103f75780633cdeb5e01461040a575f5ffd5b806304a4f979146103035780630b9f487a1461033d5780630dd8dd0214610350578063136439dd1461037057806325df922e146103855780632aa6d888146103a5575b5f5ffd5b61032a7f14bde674c9f64b2ad00eaaee4a8bed1fabef35c7507e3c5b9cfc9436909a2dad81565b6040519081526020015b60405180910390f35b61032a61034b366004614d3f565b610889565b61036361035e366004614dd6565b610911565b6040516103349190614e14565b61038361037e366004614e4b565b610ba2565b005b610398610393366004614fe0565b610c77565b604051610334919061508e565b6103836103b33660046150f0565b610dd7565b6103df7f000000000000000000000000000000000000000000000000000000000000000081565b6040516001600160a01b039091168152602001610334565b61038361040536600461514e565b610f2b565b6103df610418366004615191565b6001600160a01b039081165f908152609960205260409020600101541690565b61044b610446366004615191565b61107e565b6040519015158152602001610334565b6103df7f000000000000000000000000000000000000000000000000000000000000000081565b6103df7f000000000000000000000000000000000000000000000000000000000000000081565b6103836104b73660046151ac565b61109d565b6104c461110b565b6040516103349190615211565b61038361113b565b61032a6104e73660046152df565b6111ea565b61044b6104fa366004615310565b606654600160ff9092169190911b9081161490565b60665461032a565b61052a610525366004614e4b565b611219565b6040516103349291906153e7565b61054b610546366004615191565b611236565b604051610334929190615459565b6103836105673660046154da565b611360565b61038361057a366004615533565b6114d8565b6103df61058d366004615191565b609a6020525f90815260409020546001600160a01b031681565b6105ba6105b5366004615191565b611683565b604051610334929190615572565b61044b6105d6366004615191565b611983565b61032a6105e93660046151ac565b6119bb565b610383611a65565b61032a6106043660046151ac565b609860209081525f928352604080842090915290825290205481565b61038361062e366004615584565b611a76565b6103df7f000000000000000000000000000000000000000000000000000000000000000081565b6033546001600160a01b03166103df565b6103986106793660046155d4565b611b0c565b6103df73beac0eeeeeeeeeeeeeeeeeeeeeeeeeeeeeebeac081565b6103836106a7366004615620565b611be2565b6106bf6106ba366004614e4b565b611cbb565b60405161033491906156bc565b61032a6106da366004615191565b609f6020525f908152604090205481565b6103636106f93660046156ce565b611dd7565b61044b61070c366004614e4b565b609e6020525f908152604090205460ff1681565b61044b61072e3660046157b5565b609c60209081525f928352604080842090915290825290205460ff1681565b61032a61075b3660046151ac565b611def565b60405163ffffffff7f0000000000000000000000000000000000000000000000000000000000000000168152602001610334565b6107a76107a23660046155d4565b611e2b565b6040516103349291906157df565b6103df7f000000000000000000000000000000000000000000000000000000000000000081565b6103836107ea3660046157b5565b6120b8565b6103636107fd366004615191565b6121d3565b6103836108103660046157fe565b6122fc565b6103836108233660046156ce565b612352565b61083b610836366004615871565b6123bd565b604051610334919061591e565b610383610856366004615191565b612462565b61032a6124db565b610383610871366004614e4b565b612594565b610363610884366004615191565b6126ab565b604080517f14bde674c9f64b2ad00eaaee4a8bed1fabef35c7507e3c5b9cfc9436909a2dad60208201526001600160a01b03808616928201929092528187166060820152908516608082015260a0810183905260c081018290525f906109079060e001604051602081830303815290604052805190602001206126ce565b9695505050505050565b60665460609060019060029081160361093d5760405163840a48d560e01b815260040160405180910390fd5b6109456126fc565b5f836001600160401b0381111561095e5761095e614e62565b604051908082528060200260200182016040528015610987578160200160208202803683370190505b50335f908152609a60205260408120549192506001600160a01b03909116905b85811015610b93578686828181106109c1576109c1615930565b90506020028101906109d39190615944565b6109e1906020810190615962565b90508787838181106109f5576109f5615930565b9050602002810190610a079190615944565b610a119080615962565b905014610a31576040516343714afd60e01b815260040160405180910390fd5b5f610a9b33848a8a86818110610a4957610a49615930565b9050602002810190610a5b9190615944565b610a659080615962565b808060200260200160405190810160405280939291908181526020018383602002808284375f9201919091525061275592505050565b9050610b6d33848a8a86818110610ab457610ab4615930565b9050602002810190610ac69190615944565b610ad09080615962565b808060200260200160405190810160405280939291908181526020018383602002808284375f920191909152508e92508d9150889050818110610b1557610b15615930565b9050602002810190610b279190615944565b610b35906020810190615962565b808060200260200160405190810160405280939291908181526020018383602002808284375f920191909152508892506128a7915050565b848381518110610b7f57610b7f615930565b6020908102919091010152506001016109a7565b5050600160c955949350505050565b60405163237dfb4760e11b81523360048201527f00000000000000000000000000000000000000000000000000000000000000006001600160a01b0316906346fbf68e90602401602060405180830381865afa158015610c04573d5f5f3e3d5ffd5b505050506040513d601f19601f82011682018060405250810190610c2891906159a7565b610c4557604051631d77d47760e21b815260040160405180910390fd5b6066548181168114610c6a5760405163c61dca5d60e01b815260040160405180910390fd5b610c7382612e42565b5050565b6001600160a01b038084165f908152609a60205260408120546060921690610ca0868387612755565b90505f85516001600160401b03811115610cbc57610cbc614e62565b604051908082528060200260200182016040528015610ce5578160200160208202803683370190505b5090505f5b8651811015610dca576001600160a01b0388165f90815260a260205260408120885182908a9085908110610d2057610d20615930565b60200260200101516001600160a01b03166001600160a01b031681526020019081526020015f206040518060200160405290815f820154815250509050610da4878381518110610d7257610d72615930565b6020026020010151858481518110610d8c57610d8c615930565b602002602001015183612e7f9092919063ffffffff16565b838381518110610db657610db6615930565b602090810291909101015250600101610cea565b50925050505b9392505050565b610ddf6126fc565b610de83361107e565b15610e0657604051633bf2b50360e11b815260040160405180910390fd5b604051632b6241f360e11b815233600482015263ffffffff841660248201527f00000000000000000000000000000000000000000000000000000000000000006001600160a01b0316906356c483e6906044015f604051808303815f87803b158015610e70575f5ffd5b505af1158015610e82573d5f5f3e3d5ffd5b50505050610e903385612e9d565b610e9a3333612eff565b6040516001600160a01b038516815233907fa453db612af59e5521d6ab9284dc3e2d06af286eb1b1b7b771fce4716c19f2c19060200160405180910390a2336001600160a01b03167f02a919ed0e2acad1dd90f17ef2fa4ae5462ee1339170034a8531cca4b67080908383604051610f139291906159c2565b60405180910390a2610f25600160c955565b50505050565b336001600160a01b037f0000000000000000000000000000000000000000000000000000000000000000161480610f8a5750336001600160a01b037f000000000000000000000000000000000000000000000000000000000000000016145b610fa75760405163045206a560e21b815260040160405180910390fd5b610faf6126fc565b6001600160a01b038481165f908152609a602052604080822054905163152667d960e31b8152908316600482018190528684166024830152927f0000000000000000000000000000000000000000000000000000000000000000169063a9333ec890604401602060405180830381865afa15801561102f573d5f5f3e3d5ffd5b505050506040513d601f19601f8201168201806040525081019061105391906159f0565b90505f6110618787846131a6565b9050611071838888888886613288565b505050610f25600160c955565b6001600160a01b039081165f908152609a602052604090205416151590565b816110a7816133cd565b6110c45760405163932d94f760e01b815260040160405180910390fd5b6110cc6126fc565b6110d583611983565b6110f2576040516325ec6c1f60e01b815260040160405180910390fd5b6110fc8383612e9d565b611106600160c955565b505050565b60606111367f0000000000000000000000000000000000000000000000000000000000000000613477565b905090565b60405163237dfb4760e11b81523360048201527f00000000000000000000000000000000000000000000000000000000000000006001600160a01b0316906346fbf68e90602401602060405180830381865afa15801561119d573d5f5f3e3d5ffd5b505050506040513d601f19601f820116820180604052508101906111c191906159a7565b6111de57604051631d77d47760e21b815260040160405180910390fd5b6111e85f19612e42565b565b5f816040516020016111fc91906156bc565b604051602081830303815290604052805190602001209050919050565b611221614c00565b606061122c836134b4565b9094909350915050565b6060805f611243846126ab565b8051909150806001600160401b0381111561126057611260614e62565b60405190808252806020026020018201604052801561129957816020015b611286614c00565b81526020019060019003908161127e5790505b509350806001600160401b038111156112b4576112b4614e62565b6040519080825280602002602001820160405280156112e757816020015b60608152602001906001900390816112d25790505b5092505f5b818110156113585761131683828151811061130957611309615930565b60200260200101516134b4565b86838151811061132857611328615930565b6020026020010186848151811061134157611341615930565b6020908102919091010191909152526001016112ec565b505050915091565b336001600160a01b037f000000000000000000000000000000000000000000000000000000000000000016146113a9576040516323d871a560e01b815260040160405180910390fd5b6113b16126fc565b6001600160a01b038085165f9081526098602090815260408083209387168352929052908120546113ef906001600160401b03808616908516613707565b90505f6113fe8686868661371f565b90505f61140b8284615a1f565b9050611419875f88866137dc565b604080516001600160a01b038881168252602082018490528916917fdd611f4ef63f4385f1756c86ce1f1f389a9013ba6fa07daba8528291bc2d3c30910160405180910390a25f61146987613856565b60405163debe1eab60e01b81526001600160a01b038981166004830152602482018590529192509082169063debe1eab906044015f604051808303815f87803b1580156114b4575f5ffd5b505af11580156114c6573d5f5f3e3d5ffd5b5050505050505050610f25600160c955565b336001600160a01b037f0000000000000000000000000000000000000000000000000000000000000000161461152157604051633213a66160e21b815260040160405180910390fd5b6115296126fc565b6115328361107e565b156110fc576001600160a01b038381165f908152609a602052604080822054905163152667d960e31b81529083166004820181905273beac0eeeeeeeeeeeeeeeeeeeeeeeeeeeeeebeac06024830152927f0000000000000000000000000000000000000000000000000000000000000000169063a9333ec890604401602060405180830381865afa1580156115c9573d5f5f3e3d5ffd5b505050506040513d601f19601f820116820180604052508101906115ed91906159f0565b6001600160a01b0386165f90815260a26020908152604080832073beac0eeeeeeeeeeeeeeeeeeeeeeeeeeeeeebeac08452825280832081519283019091525481529192506116538661164b6001600160401b038087169089166138c8565b8491906138dc565b9050611675848873beac0eeeeeeeeeeeeeeeeeeeeeeeeeeeeeebeac0846137dc565b50505050611106600160c955565b6040516394f649dd60e01b81526001600160a01b03828116600483015260609182915f9182917f000000000000000000000000000000000000000000000000000000000000000016906394f649dd906024015f60405180830381865afa1580156116ef573d5f5f3e3d5ffd5b505050506040513d5f823e601f3d908101601f191682016040526117169190810190615a8d565b60405163fe243a1760e01b81526001600160a01b03888116600483015273beac0eeeeeeeeeeeeeeeeeeeeeeeeeeeeeebeac060248301529294509092505f917f0000000000000000000000000000000000000000000000000000000000000000169063fe243a1790604401602060405180830381865afa15801561179c573d5f5f3e3d5ffd5b505050506040513d601f19601f820116820180604052508101906117c09190615b48565b9050805f036117d457509094909350915050565b5f835160016117e39190615a1f565b6001600160401b038111156117fa576117fa614e62565b604051908082528060200260200182016040528015611823578160200160208202803683370190505b5090505f845160016118359190615a1f565b6001600160401b0381111561184c5761184c614e62565b604051908082528060200260200182016040528015611875578160200160208202803683370190505b50905073beac0eeeeeeeeeeeeeeeeeeeeeeeeeeeeeebeac0828651815181106118a0576118a0615930565b60200260200101906001600160a01b031690816001600160a01b03168152505082818651815181106118d4576118d4615930565b60209081029190910101525f5b8551811015611975578581815181106118fc576118fc615930565b602002602001015183828151811061191657611916615930565b60200260200101906001600160a01b031690816001600160a01b03168152505084818151811061194857611948615930565b602002602001015182828151811061196257611962615930565b60209081029190910101526001016118e1565b509097909650945050505050565b5f6001600160a01b038216158015906119b557506001600160a01b038083165f818152609a6020526040902054909116145b92915050565b60405163152667d960e31b81526001600160a01b03838116600483015282811660248301525f9182917f0000000000000000000000000000000000000000000000000000000000000000169063a9333ec890604401602060405180830381865afa158015611a2b573d5f5f3e3d5ffd5b505050506040513d601f19601f82011682018060405250810190611a4f91906159f0565b9050611a5d8484835f61371f565b949350505050565b611a6d6138fa565b6111e85f613954565b82611a80816133cd565b611a9d5760405163932d94f760e01b815260040160405180910390fd5b611aa684611983565b611ac3576040516325ec6c1f60e01b815260040160405180910390fd5b836001600160a01b03167f02a919ed0e2acad1dd90f17ef2fa4ae5462ee1339170034a8531cca4b67080908484604051611afe9291906159c2565b60405180910390a250505050565b60605f82516001600160401b03811115611b2857611b28614e62565b604051908082528060200260200182016040528015611b51578160200160208202803683370190505b5090505f5b8351811015611bda576001600160a01b0385165f9081526098602052604081208551909190869084908110611b8d57611b8d615930565b60200260200101516001600160a01b03166001600160a01b031681526020019081526020015f2054828281518110611bc757611bc7615930565b6020908102919091010152600101611b56565b509392505050565b606654600290600490811603611c0b5760405163840a48d560e01b815260040160405180910390fd5b611c136126fc565b855f5b81811015611ca657611c9e898983818110611c3357611c33615930565b9050602002810190611c459190615b5f565b611c4e90615b73565b888884818110611c6057611c60615930565b9050602002810190611c729190615962565b888886818110611c8457611c84615930565b9050602002016020810190611c999190615b7e565b6139a5565b600101611c16565b5050611cb2600160c955565b50505050505050565b611cc3614c00565b5f82815260a46020908152604091829020825160e08101845281546001600160a01b03908116825260018301548116828501526002830154168185015260038201546060820152600482015463ffffffff1660808201526005820180548551818602810186019096528086529194929360a08601939290830182828015611d7157602002820191905f5260205f20905b81546001600160a01b03168152600190910190602001808311611d53575b5050505050815260200160068201805480602002602001604051908101604052809291908181526020018280548015611dc757602002820191905f5260205f20905b815481526020019060010190808311611db3575b5050505050815250509050919050565b6060611de2336121d3565b9050610dd0848484612352565b6001600160a01b038083165f90815260a260209081526040808320938516835292815282822083519182019093529154825290610dd090613de7565b60608082516001600160401b03811115611e4757611e47614e62565b604051908082528060200260200182016040528015611e70578160200160208202803683370190505b50915082516001600160401b03811115611e8c57611e8c614e62565b604051908082528060200260200182016040528015611eb5578160200160208202803683370190505b506001600160a01b038086165f908152609a6020526040812054929350911690611ee0868387612755565b90505f5b85518110156120ad575f611f10878381518110611f0357611f03615930565b6020026020010151613856565b9050806001600160a01b031663fe243a1789898581518110611f3457611f34615930565b60200260200101516040518363ffffffff1660e01b8152600401611f6e9291906001600160a01b0392831681529116602082015260400190565b602060405180830381865afa158015611f89573d5f5f3e3d5ffd5b505050506040513d601f19601f82011682018060405250810190611fad9190615b48565b858381518110611fbf57611fbf615930565b6020026020010181815250505f60a25f8a6001600160a01b03166001600160a01b031681526020019081526020015f205f89858151811061200257612002615930565b60200260200101516001600160a01b03166001600160a01b031681526020019081526020015f206040518060200160405290815f82015481525050905061208686848151811061205457612054615930565b602002602001015185858151811061206e5761206e615930565b6020026020010151836138dc9092919063ffffffff16565b87848151811061209857612098615930565b60209081029190910101525050600101611ee4565b5050505b9250929050565b5f54610100900460ff16158080156120d657505f54600160ff909116105b806120ef5750303b1580156120ef57505f5460ff166001145b6121575760405162461bcd60e51b815260206004820152602e60248201527f496e697469616c697a61626c653a20636f6e747261637420697320616c72656160448201526d191e481a5b9a5d1a585b1a5e995960921b60648201526084015b60405180910390fd5b5f805460ff191660011790558015612178575f805461ff0019166101001790555b61218182612e42565b61218a83613954565b8015611106575f805461ff0019169055604051600181527f7f26b83ff96e1f2b6a682f133852f6798a09c465da95921460cefb38474024989060200160405180910390a1505050565b60606121dd6126fc565b6121e68261107e565b6122035760405163a5c7c44560e01b815260040160405180910390fd5b61220c82611983565b1561222a576040516311ca333560e31b815260040160405180910390fd5b336001600160a01b038316146122e2576001600160a01b038083165f908152609a60205260409020541661225d816133cd565b8061228357506001600160a01b038181165f908152609960205260409020600101541633145b6122a057604051631e499a2360e11b815260040160405180910390fd5b806001600160a01b0316836001600160a01b03167ff0eddf07e6ea14f388b47e1e94a0f464ecbd9eed4171130e0fc0e99fb4030a8a60405160405180910390a3505b6122eb82613e06565b90506122f7600160c955565b919050565b6066546002906004908116036123255760405163840a48d560e01b815260040160405180910390fd5b61232d6126fc565b61234161233986615b73565b8585856139a5565b61234b600160c955565b5050505050565b61235a6126fc565b6123633361107e565b1561238157604051633bf2b50360e11b815260040160405180910390fd5b61238a83611983565b6123a7576040516325ec6c1f60e01b815260040160405180910390fd5b6123b333848484614065565b6110fc3384612eff565b60605f83516001600160401b038111156123d9576123d9614e62565b60405190808252806020026020018201604052801561240c57816020015b60608152602001906001900390816123f75790505b5090505f5b8451811015611bda5761243d85828151811061242f5761242f615930565b602002602001015185611b0c565b82828151811061244f5761244f615930565b6020908102919091010152600101612411565b61246a6138fa565b6001600160a01b0381166124cf5760405162461bcd60e51b815260206004820152602660248201527f4f776e61626c653a206e6577206f776e657220697320746865207a65726f206160448201526564647265737360d01b606482015260840161214e565b6124d881613954565b50565b60408051808201909152600a81526922b4b3b2b72630bcb2b960b11b6020909101525f7f8b73c3c69bb8fe3d512ecc4cf759cc79239f7b179b0ffacaa9a75d522b39400f7f71b625cfad44bac63b13dba07f2e1d6084ee04b6f8752101ece6126d584ee6ea612548614124565b805160209182012060408051928301949094529281019190915260608101919091524660808201523060a082015260c00160405160208183030381529060405280519060200120905090565b7f00000000000000000000000000000000000000000000000000000000000000006001600160a01b031663eab66d7a6040518163ffffffff1660e01b8152600401602060405180830381865afa1580156125f0573d5f5f3e3d5ffd5b505050506040513d601f19601f820116820180604052508101906126149190615b99565b6001600160a01b0316336001600160a01b0316146126455760405163794821ff60e01b815260040160405180910390fd5b6066548019821981161461266c5760405163c61dca5d60e01b815260040160405180910390fd5b606682905560405182815233907f3582d1828e26bf56bd801502bc021ac0bc8afb57c826e4986b45593c8fad389c906020015b60405180910390a25050565b6001600160a01b0381165f90815260a3602052604090206060906119b5906141c0565b5f6126d76124db565b60405161190160f01b60208201526022810191909152604281018390526062016111fc565b600260c9540361274e5760405162461bcd60e51b815260206004820152601f60248201527f5265656e7472616e637947756172643a207265656e7472616e742063616c6c00604482015260640161214e565b600260c955565b60605f82516001600160401b0381111561277157612771614e62565b60405190808252806020026020018201604052801561279a578160200160208202803683370190505b5090505f7f00000000000000000000000000000000000000000000000000000000000000006001600160a01b031663547afb8786866040518363ffffffff1660e01b81526004016127ec929190615bb4565b5f60405180830381865afa158015612806573d5f5f3e3d5ffd5b505050506040513d5f823e601f3d908101601f1916820160405261282d9190810190615bd7565b90505f5b845181101561289c576128778786838151811061285057612850615930565b602002602001015184848151811061286a5761286a615930565b60200260200101516131a6565b83828151811061288957612889615930565b6020908102919091010152600101612831565b509095945050505050565b5f6001600160a01b0386166128cf576040516339b190bb60e11b815260040160405180910390fd5b83515f036128f05760405163796cc52560e01b815260040160405180910390fd5b5f84516001600160401b0381111561290a5761290a614e62565b604051908082528060200260200182016040528015612933578160200160208202803683370190505b5090505f85516001600160401b0381111561295057612950614e62565b604051908082528060200260200182016040528015612979578160200160208202803683370190505b5090505f5b8651811015612c75575f61299d888381518110611f0357611f03615930565b90505f60a25f8c6001600160a01b03166001600160a01b031681526020019081526020015f205f8a85815181106129d6576129d6615930565b60200260200101516001600160a01b03166001600160a01b031681526020019081526020015f209050612a4f888481518110612a1457612a14615930565b6020026020010151888581518110612a2e57612a2e615930565b602090810291909101810151604080519283019052845482529091906138dc565b848481518110612a6157612a61615930565b602002602001018181525050612aa0888481518110612a8257612a82615930565b602090810291909101810151604080519283019052835482526141cc565b858481518110612ab257612ab2615930565b60209081029190910101526001600160a01b038a1615612b4757612b098a8a8581518110612ae257612ae2615930565b6020026020010151878681518110612afc57612afc615930565b60200260200101516141e0565b612b478a8c8b8681518110612b2057612b20615930565b6020026020010151878781518110612b3a57612b3a615930565b60200260200101516137dc565b5f826001600160a01b031663724af4238d8c8781518110612b6a57612b6a615930565b60200260200101518c8881518110612b8457612b84615930565b60200260200101516040518463ffffffff1660e01b8152600401612baa93929190615c66565b6020604051808303815f875af1158015612bc6573d5f5f3e3d5ffd5b505050506040513d601f19601f82011682018060405250810190612bea9190615b48565b9050805f03612c67575f82557f8be932bac54561f27260f95463d9b8ab37e06b2842e5ee2404157cc13df6eb8f8c8b8681518110612c2a57612c2a615930565b6020026020010151612c4f856040518060200160405290815f82015481525050613de7565b604051612c5e93929190615c66565b60405180910390a15b50505080600101905061297e565b506001600160a01b0388165f908152609f60205260408120805491829190612c9c83615c8a565b91905055505f6040518060e001604052808b6001600160a01b031681526020018a6001600160a01b031681526020018b6001600160a01b031681526020018381526020014363ffffffff1681526020018981526020018581525090505f612d02826111ea565b5f818152609e602090815260408083208054600160ff19909116811790915560a4835292819020865181546001600160a01b03199081166001600160a01b039283161783558885015195830180548216968316969096179095559187015160028201805490951692169190911790925560608501516003830155608085015160048301805463ffffffff191663ffffffff90921691909117905560a085015180519394508593612db89260058501920190614c59565b5060c08201518051612dd4916006840191602090910190614cbc565b5050506001600160a01b038b165f90815260a360205260409020612df8908261424a565b507f26b2aae26516e8719ef50ea2f6831a2efbd4e37dccdf0f6936b27bc08e793e30818386604051612e2c93929190615ca2565b60405180910390a19a9950505050505050505050565b606681905560405181815233907fab40a374bc51de372200a8bc981af8c9ecdc08dfdaef0bb6e09f88f3c616ef3d9060200160405180910390a250565b5f611a5d82612e97612e9087613de7565b8690614255565b90614255565b6001600160a01b038281165f8181526099602090815260409182902060010180546001600160a01b0319169486169485179055905192835290917f773b54c04d756fcc5e678111f7d730de3be98192000799eee3d63716055a87c6910161269f565b6066545f90600190811603612f275760405163840a48d560e01b815260040160405180910390fd5b5f5f612f3285611683565b915091505f612f425f8685612755565b6001600160a01b038781165f818152609a602052604080822080546001600160a01b031916948b16948517905551939450919290917fc3ee9f2e5fda98e8066a1f745b2df9285f416fe98cf2559cd21484b3d874330491a35f5b8351811015611cb25773beac0eeeeeeeeeeeeeeeeeeeeeeeeeeeeeebeac06001600160a01b0316848281518110612fd557612fd5615930565b60200260200101516001600160a01b0316036131455760405163a3d75e0960e01b81526001600160a01b0388811660048301525f917f00000000000000000000000000000000000000000000000000000000000000009091169063a3d75e0990602401602060405180830381865afa158015613053573d5f5f3e3d5ffd5b505050506040513d601f19601f8201168201806040525081019061307791906159f0565b90505f60a25f8a6001600160a01b03166001600160a01b031681526020019081526020015f205f8785815181106130b0576130b0615930565b60200260200101516001600160a01b03166001600160a01b031681526020019081526020015f206040518060200160405290815f82015481525050905061312485848151811061310257613102615930565b6020026020010151836001600160401b0316836138dc9092919063ffffffff16565b85848151811061313657613136615930565b60200260200101818152505050505b61319e868886848151811061315c5761315c615930565b60200260200101515f87868151811061317757613177615930565b602002602001015187878151811061319157613191615930565b6020026020010151613288565b600101612f9c565b5f73beac0eeeeeeeeeeeeeeeeeeeeeeeeeeeeeebeabf196001600160a01b038416016132785760405163a3d75e0960e01b81526001600160a01b0385811660048301525f917f00000000000000000000000000000000000000000000000000000000000000009091169063a3d75e0990602401602060405180830381865afa158015613234573d5f5f3e3d5ffd5b505050506040513d601f19601f8201168201806040525081019061325891906159f0565b90506132706001600160401b038481169083166138c8565b915050610dd0565b506001600160401b031692915050565b805f036132a857604051630a33bc6960e21b815260040160405180910390fd5b81156133c5576001600160a01b038086165f90815260a2602090815260408083209388168352929052206132de81858585614269565b6040805160208101909152815481527f8be932bac54561f27260f95463d9b8ab37e06b2842e5ee2404157cc13df6eb8f908790879061331c90613de7565b60405161332b93929190615c66565b60405180910390a161333c8661107e565b15611cb2576001600160a01b038088165f90815260986020908152604080832093891683529290529081208054859290613377908490615a1f565b92505081905550866001600160a01b03167f1ec042c965e2edd7107b51188ee0f383e22e76179041ab3a9d18ff151405166c8787866040516133bb93929190615c66565b60405180910390a2505b505050505050565b604051631beb2b9760e31b81526001600160a01b0382811660048301523360248301523060448301525f80356001600160e01b0319166064840152917f00000000000000000000000000000000000000000000000000000000000000009091169063df595cb8906084016020604051808303815f875af1158015613453573d5f5f3e3d5ffd5b505050506040513d601f19601f820116820180604052508101906119b591906159a7565b60605f613483836142e4565b6040805160208082528183019092529192505f91906020820181803683375050509182525060208101929092525090565b6134bc614c00565b5f82815260a46020908152604091829020825160e08101845281546001600160a01b0390811682526001830154811682850152600283015416818501526003820154606082810191909152600483015463ffffffff1660808301526005830180548651818702810187019097528087529195929460a0860193929083018282801561356e57602002820191905f5260205f20905b81546001600160a01b03168152600190910190602001808311613550575b50505050508152602001600682018054806020026020016040519081016040528092919081815260200182805480156135c457602002820191905f5260205f20905b8154815260200190600101908083116135b0575b50505050508152505091508160a00151516001600160401b038111156135ec576135ec614e62565b604051908082528060200260200182016040528015613615578160200160208202803683370190505b5090505f7f000000000000000000000000000000000000000000000000000000000000000083608001516136499190615ccc565b90505f4363ffffffff168263ffffffff161061367a57613675845f015185602001518660a00151612755565b613691565b613691845f015185602001518660a001518561430b565b90505f5b8460a0015151811015611358576136e28560c0015182815181106136bb576136bb615930565b60200260200101518383815181106136d5576136d5615930565b6020026020010151614439565b8482815181106136f4576136f4615930565b6020908102919091010152600101613695565b5f6137158483856001614444565b611a5d9085615ce8565b6001600160a01b038085165f90815260a560209081526040808320938716835292905290812081906137509061449f565b90505f6137b660016137827f000000000000000000000000000000000000000000000000000000000000000043615cfb565b61378c9190615cfb565b6001600160a01b03808a165f90815260a560209081526040808320938c16835292905220906144b9565b90505f6137c38284615ce8565b90506137d08187876144d5565b98975050505050505050565b6001600160a01b038085165f90815260986020908152604080832093861683529290529081208054839290613812908490615ce8565b92505081905550836001600160a01b03167f6909600037b75d7b4733aedd815442b5ec018a827751c832aaff64eba5d6d2dd848484604051611afe93929190615c66565b5f6001600160a01b03821673beac0eeeeeeeeeeeeeeeeeeeeeeeeeeeeeebeac0146138a1577f00000000000000000000000000000000000000000000000000000000000000006119b5565b7f000000000000000000000000000000000000000000000000000000000000000092915050565b5f610dd08383670de0b6b3a76400006144f3565b5f611a5d826138f46138ed87613de7565b86906138c8565b906138c8565b6033546001600160a01b031633146111e85760405162461bcd60e51b815260206004820181905260248201527f4f776e61626c653a2063616c6c6572206973206e6f7420746865206f776e6572604482015260640161214e565b603380546001600160a01b038381166001600160a01b0319831681179093556040519116919082907f8be0079c531659141344cd1fd0a4f28419497f9722a3daafe3b4186f6b6457e0905f90a35050565b60a08401515182146139ca576040516343714afd60e01b815260040160405180910390fd5b83604001516001600160a01b0316336001600160a01b031614613a00576040516316110d3560e21b815260040160405180910390fd5b5f613a0a856111ea565b5f818152609e602052604090205490915060ff16613a3b576040516387c9d21960e01b815260040160405180910390fd5b60605f7f00000000000000000000000000000000000000000000000000000000000000008760800151613a6e9190615ccc565b90508063ffffffff164363ffffffff1611613a9c576040516378f67ae160e11b815260040160405180910390fd5b613ab3875f015188602001518960a001518461430b565b87516001600160a01b03165f90815260a360205260409020909250613ad99150836145d8565b505f82815260a46020526040812080546001600160a01b031990811682556001820180548216905560028201805490911690556003810182905560048101805463ffffffff1916905590613b306005830182614cf5565b613b3d600683015f614cf5565b50505f828152609e602052604090819020805460ff19169055517f1f40400889274ed07b24845e5054a87a0cab969eb1277aafe61ae352e7c32a0090613b869084815260200190565b60405180910390a185516001600160a01b039081165f908152609a6020526040812054885160a08a01519190931692613bc0918490612755565b90505f5b8860a0015151811015613ddc575f613beb8a60a001518381518110611f0357611f03615930565b90505f613c218b60c001518481518110613c0757613c07615930565b60200260200101518785815181106136d5576136d5615930565b9050805f03613c31575050613dd4565b8715613cff57816001600160a01b0316632eae418c8c5f01518d60a001518681518110613c6057613c60615930565b60200260200101518d8d88818110613c7a57613c7a615930565b9050602002016020810190613c8f9190615191565b60405160e085901b6001600160e01b03191681526001600160a01b03938416600482015291831660248301529091166044820152606481018490526084015f604051808303815f87803b158015613ce4575f5ffd5b505af1158015613cf6573d5f5f3e3d5ffd5b50505050613dd1565b5f5f836001600160a01b03166350ff72258e5f01518f60a001518881518110613d2a57613d2a615930565b6020026020010151866040518463ffffffff1660e01b8152600401613d5193929190615c66565b60408051808303815f875af1158015613d6c573d5f5f3e3d5ffd5b505050506040513d601f19601f82011682018060405250810190613d909190615d17565b91509150613dce878e5f01518f60a001518881518110613db257613db2615930565b602002602001015185858b8b8151811061319157613191615930565b50505b50505b600101613bc4565b505050505050505050565b80515f9015613df75781516119b5565b670de0b6b3a764000092915050565b606654606090600190600290811603613e325760405163840a48d560e01b815260040160405180910390fd5b6001600160a01b038084165f818152609a602052604080822080546001600160a01b0319811690915590519316928392917ffee30966a256b71e14bc0ebfc94315e28ef4a97a7131a9e2b7a310a73af4467691a35f5f613e9186611683565b9150915081515f03613ea55750505061405f565b81516001600160401b03811115613ebe57613ebe614e62565b604051908082528060200260200182016040528015613ee7578160200160208202803683370190505b5094505f613ef6878585612755565b90505f5b8351811015614059576040805160018082528183019092525f916020808301908036833750506040805160018082528183019092529293505f9291506020808301908036833750506040805160018082528183019092529293505f92915060208083019080368337019050509050868481518110613f7a57613f7a615930565b6020026020010151835f81518110613f9457613f94615930565b60200260200101906001600160a01b031690816001600160a01b031681525050858481518110613fc657613fc6615930565b6020026020010151825f81518110613fe057613fe0615930565b602002602001018181525050848481518110613ffe57613ffe615930565b6020026020010151815f8151811061401857614018615930565b6020026020010181815250506140318b898585856128a7565b8a858151811061404357614043615930565b6020908102919091010152505050600101613efa565b50505050505b50919050565b6001600160a01b038084165f90815260996020526040902060010154168061408d5750610f25565b6001600160a01b0381165f908152609c6020908152604080832085845290915290205460ff16156140d157604051630d4c4c9160e21b815260040160405180910390fd5b6001600160a01b0381165f908152609c602090815260408083208584528252909120805460ff1916600117905583015161234b908290614118908890889084908890610889565b855160208701516145e3565b60605f6141507f0000000000000000000000000000000000000000000000000000000000000000613477565b9050805f8151811061416457614164615930565b602001015160f81c60f81b8160018151811061418257614182615930565b016020908101516040516001600160f81b03199384169281019290925291909116602182015260220160405160208183030381529060405291505090565b60605f610dd083614635565b5f610dd06141d984613de7565b83906138c8565b6001600160a01b038084165f90815260a560209081526040808320938616835292905290812061420f9061449f565b9050610f254361421f8484615a1f565b6001600160a01b038088165f90815260a560209081526040808320938a16835292905220919061468e565b5f610dd08383614699565b5f610dd083670de0b6b3a7640000846144f3565b825f036142955760408051602081019091528454815261428e908290612e9790613de7565b8455610f25565b6040805160208101909152845481525f906142b19085846138dc565b90505f6142be8483615a1f565b90505f6142d984612e976142d2888a615a1f565b8590614255565b875550505050505050565b5f60ff8216601f8111156119b557604051632cd44ac360e21b815260040160405180910390fd5b60605f83516001600160401b0381111561432757614327614e62565b604051908082528060200260200182016040528015614350578160200160208202803683370190505b5090505f7f00000000000000000000000000000000000000000000000000000000000000006001600160a01b03166394d7d00c8787876040518463ffffffff1660e01b81526004016143a493929190615d39565b5f60405180830381865afa1580156143be573d5f5f3e3d5ffd5b505050506040513d5f823e601f3d908101601f191682016040526143e59190810190615bd7565b90505f5b855181101561442d576144088887838151811061285057612850615930565b83828151811061441a5761441a615930565b60209081029190910101526001016143e9565b50909695505050505050565b5f610dd083836138c8565b5f5f6144518686866144f3565b9050600183600281111561446757614467615d72565b14801561448357505f848061447e5761447e615d86565b868809115b1561449657614493600182615a1f565b90505b95945050505050565b5f6144aa82826146e5565b6001600160e01b031692915050565b5f6144c583838361472a565b6001600160e01b03169392505050565b5f611a5d6144e38385615d9a565b85906001600160401b03166138c8565b5f80805f19858709858702925082811083820303915050805f0361452a5783828161452057614520615d86565b0492505050610dd0565b8084116145715760405162461bcd60e51b81526020600482015260156024820152744d6174683a206d756c446976206f766572666c6f7760581b604482015260640161214e565b5f8486880960026001871981018816978890046003810283188082028403028082028403028082028403028082028403028082028403029081029092039091025f889003889004909101858311909403939093029303949094049190911702949350505050565b5f610dd08383614773565b4281101561460457604051630819bdcd60e01b815260040160405180910390fd5b6146186001600160a01b0385168484614856565b610f2557604051638baa579f60e01b815260040160405180910390fd5b6060815f0180548060200260200160405190810160405280929190818152602001828054801561468257602002820191905f5260205f20905b81548152602001906001019080831161466e575b50505050509050919050565b6111068383836148aa565b5f8181526001830160205260408120546146de57508154600181810184555f8481526020808220909301849055845484825282860190935260409020919091556119b5565b505f6119b5565b81545f9080156147225761470b846146fe600184615ce8565b5f91825260209091200190565b5464010000000090046001600160e01b0316611a5d565b509092915050565b82545f908161473b868683856149b0565b9050801561476957614752866146fe600184615ce8565b5464010000000090046001600160e01b0316610907565b5091949350505050565b5f818152600183016020526040812054801561484d575f614795600183615ce8565b85549091505f906147a890600190615ce8565b9050818114614807575f865f0182815481106147c6576147c6615930565b905f5260205f200154905080875f0184815481106147e6576147e6615930565b5f918252602080832090910192909255918252600188019052604090208390555b855486908061481857614818615db9565b600190038181905f5260205f20015f90559055856001015f8681526020019081526020015f205f9055600193505050506119b5565b5f9150506119b5565b5f5f5f6148638585614a03565b90925090505f81600481111561487b5761487b615d72565b1480156148995750856001600160a01b0316826001600160a01b0316145b806109075750610907868686614a42565b82548015614962575f6148c2856146fe600185615ce8565b60408051808201909152905463ffffffff8082168084526401000000009092046001600160e01b0316602084015291925090851610156149155760405163151b8e3f60e11b815260040160405180910390fd5b805163ffffffff8086169116036149605782614936866146fe600186615ce8565b80546001600160e01b03929092166401000000000263ffffffff9092169190911790555050505050565b505b506040805180820190915263ffffffff92831681526001600160e01b03918216602080830191825285546001810187555f968752952091519051909216640100000000029190921617910155565b5f5b81831015611bda575f6149c58484614b29565b5f8781526020902090915063ffffffff86169082015463ffffffff1611156149ef578092506149fd565b6149fa816001615a1f565b93505b506149b2565b5f5f8251604103614a37576020830151604084015160608501515f1a614a2b87828585614b43565b945094505050506120b1565b505f905060026120b1565b5f5f5f856001600160a01b0316631626ba7e60e01b8686604051602401614a6a929190615dcd565b60408051601f198184030181529181526020820180516001600160e01b03166001600160e01b0319909416939093179092529051614aa89190615de5565b5f60405180830381855afa9150503d805f8114614ae0576040519150601f19603f3d011682016040523d82523d5f602084013e614ae5565b606091505b5091509150818015614af957506020815110155b801561090757508051630b135d3f60e11b90614b1e9083016020908101908401615b48565b149695505050505050565b5f614b376002848418615dfb565b610dd090848416615a1f565b5f807f7fffffffffffffffffffffffffffffff5d576e7357a4501ddfe92f46681b20a0831115614b7857505f90506003614bf7565b604080515f8082526020820180845289905260ff881692820192909252606081018690526080810185905260019060a0016020604051602081039080840390855afa158015614bc9573d5f5f3e3d5ffd5b5050604051601f1901519150506001600160a01b038116614bf1575f60019250925050614bf7565b91505f90505b94509492505050565b6040518060e001604052805f6001600160a01b031681526020015f6001600160a01b031681526020015f6001600160a01b031681526020015f81526020015f63ffffffff16815260200160608152602001606081525090565b828054828255905f5260205f20908101928215614cac579160200282015b82811115614cac57825182546001600160a01b0319166001600160a01b03909116178255602090920191600190910190614c77565b50614cb8929150614d0c565b5090565b828054828255905f5260205f20908101928215614cac579160200282015b82811115614cac578251825591602001919060010190614cda565b5080545f8255905f5260205f20908101906124d891905b5b80821115614cb8575f8155600101614d0d565b6001600160a01b03811681146124d8575f5ffd5b80356122f781614d20565b5f5f5f5f5f60a08688031215614d53575f5ffd5b8535614d5e81614d20565b94506020860135614d6e81614d20565b93506040860135614d7e81614d20565b94979396509394606081013594506080013592915050565b5f5f83601f840112614da6575f5ffd5b5081356001600160401b03811115614dbc575f5ffd5b6020830191508360208260051b85010111156120b1575f5ffd5b5f5f60208385031215614de7575f5ffd5b82356001600160401b03811115614dfc575f5ffd5b614e0885828601614d96565b90969095509350505050565b602080825282518282018190525f918401906040840190835b8181101561289c578351835260209384019390920191600101614e2d565b5f60208284031215614e5b575f5ffd5b5035919050565b634e487b7160e01b5f52604160045260245ffd5b60405160e081016001600160401b0381118282101715614e9857614e98614e62565b60405290565b604080519081016001600160401b0381118282101715614e9857614e98614e62565b604051601f8201601f191681016001600160401b0381118282101715614ee857614ee8614e62565b604052919050565b5f6001600160401b03821115614f0857614f08614e62565b5060051b60200190565b5f82601f830112614f21575f5ffd5b8135614f34614f2f82614ef0565b614ec0565b8082825260208201915060208360051b860101925085831115614f55575f5ffd5b602085015b83811015614f7b578035614f6d81614d20565b835260209283019201614f5a565b5095945050505050565b5f82601f830112614f94575f5ffd5b8135614fa2614f2f82614ef0565b8082825260208201915060208360051b860101925085831115614fc3575f5ffd5b602085015b83811015614f7b578035835260209283019201614fc8565b5f5f5f60608486031215614ff2575f5ffd5b8335614ffd81614d20565b925060208401356001600160401b03811115615017575f5ffd5b61502386828701614f12565b92505060408401356001600160401b0381111561503e575f5ffd5b61504a86828701614f85565b9150509250925092565b5f8151808452602084019350602083015f5b82811015615084578151865260209586019590910190600101615066565b5093949350505050565b602081525f610dd06020830184615054565b803563ffffffff811681146122f7575f5ffd5b5f5f83601f8401126150c3575f5ffd5b5081356001600160401b038111156150d9575f5ffd5b6020830191508360208285010111156120b1575f5ffd5b5f5f5f5f60608587031215615103575f5ffd5b843561510e81614d20565b935061511c602086016150a0565b925060408501356001600160401b03811115615136575f5ffd5b615142878288016150b3565b95989497509550505050565b5f5f5f5f60808587031215615161575f5ffd5b843561516c81614d20565b9350602085013561517c81614d20565b93969395505050506040820135916060013590565b5f602082840312156151a1575f5ffd5b8135610dd081614d20565b5f5f604083850312156151bd575f5ffd5b82356151c881614d20565b915060208301356151d881614d20565b809150509250929050565b5f81518084528060208401602086015e5f602082860101526020601f19601f83011685010191505092915050565b602081525f610dd060208301846151e3565b5f60e08284031215615233575f5ffd5b61523b614e76565b905061524682614d34565b815261525460208301614d34565b602082015261526560408301614d34565b604082015260608281013590820152615280608083016150a0565b608082015260a08201356001600160401b0381111561529d575f5ffd5b6152a984828501614f12565b60a08301525060c08201356001600160401b038111156152c7575f5ffd5b6152d384828501614f85565b60c08301525092915050565b5f602082840312156152ef575f5ffd5b81356001600160401b03811115615304575f5ffd5b611a5d84828501615223565b5f60208284031215615320575f5ffd5b813560ff81168114610dd0575f5ffd5b5f8151808452602084019350602083015f5b828110156150845781516001600160a01b0316865260209586019590910190600101615342565b80516001600160a01b03908116835260208083015182169084015260408083015190911690830152606080820151908301526080808201515f916153b49085018263ffffffff169052565b5060a082015160e060a08501526153ce60e0850182615330565b905060c083015184820360c08601526144968282615054565b604081525f6153f96040830185615369565b82810360208401526144968185615054565b5f82825180855260208501945060208160051b830101602085015f5b8381101561442d57601f19858403018852615443838351615054565b6020988901989093509190910190600101615427565b5f604082016040835280855180835260608501915060608160051b8601019250602087015f5b828110156154b057605f1987860301845261549b858351615369565b9450602093840193919091019060010161547f565b505050508281036020840152614496818561540b565b6001600160401b03811681146124d8575f5ffd5b5f5f5f5f608085870312156154ed575f5ffd5b84356154f881614d20565b9350602085013561550881614d20565b92506040850135615518816154c6565b91506060850135615528816154c6565b939692955090935050565b5f5f5f60608486031215615545575f5ffd5b833561555081614d20565b9250602084013591506040840135615567816154c6565b809150509250925092565b604081525f6153f96040830185615330565b5f5f5f60408486031215615596575f5ffd5b83356155a181614d20565b925060208401356001600160401b038111156155bb575f5ffd5b6155c7868287016150b3565b9497909650939450505050565b5f5f604083850312156155e5575f5ffd5b82356155f081614d20565b915060208301356001600160401b0381111561560a575f5ffd5b61561685828601614f12565b9150509250929050565b5f5f5f5f5f5f60608789031215615635575f5ffd5b86356001600160401b0381111561564a575f5ffd5b61565689828a01614d96565b90975095505060208701356001600160401b03811115615674575f5ffd5b61568089828a01614d96565b90955093505060408701356001600160401b0381111561569e575f5ffd5b6156aa89828a01614d96565b979a9699509497509295939492505050565b602081525f610dd06020830184615369565b5f5f5f606084860312156156e0575f5ffd5b83356156eb81614d20565b925060208401356001600160401b03811115615705575f5ffd5b840160408187031215615716575f5ffd5b61571e614e9e565b81356001600160401b03811115615733575f5ffd5b8201601f81018813615743575f5ffd5b80356001600160401b0381111561575c5761575c614e62565b61576f601f8201601f1916602001614ec0565b818152896020838501011115615783575f5ffd5b816020840160208301375f60209282018301528352928301359282019290925293969395505050506040919091013590565b5f5f604083850312156157c6575f5ffd5b82356157d181614d20565b946020939093013593505050565b604081525f6153f96040830185615054565b80151581146124d8575f5ffd5b5f5f5f5f60608587031215615811575f5ffd5b84356001600160401b03811115615826575f5ffd5b850160e08188031215615837575f5ffd5b935060208501356001600160401b03811115615851575f5ffd5b61585d87828801614d96565b9094509250506040850135615528816157f1565b5f5f60408385031215615882575f5ffd5b82356001600160401b03811115615897575f5ffd5b8301601f810185136158a7575f5ffd5b80356158b5614f2f82614ef0565b8082825260208201915060208360051b8501019250878311156158d6575f5ffd5b6020840193505b828410156159015783356158f081614d20565b8252602093840193909101906158dd565b945050505060208301356001600160401b0381111561560a575f5ffd5b602081525f610dd0602083018461540b565b634e487b7160e01b5f52603260045260245ffd5b5f8235605e19833603018112615958575f5ffd5b9190910192915050565b5f5f8335601e19843603018112615977575f5ffd5b8301803591506001600160401b03821115615990575f5ffd5b6020019150600581901b36038213156120b1575f5ffd5b5f602082840312156159b7575f5ffd5b8151610dd0816157f1565b60208152816020820152818360408301375f818301604090810191909152601f909201601f19160101919050565b5f60208284031215615a00575f5ffd5b8151610dd0816154c6565b634e487b7160e01b5f52601160045260245ffd5b808201808211156119b5576119b5615a0b565b5f82601f830112615a41575f5ffd5b8151615a4f614f2f82614ef0565b8082825260208201915060208360051b860101925085831115615a70575f5ffd5b602085015b83811015614f7b578051835260209283019201615a75565b5f5f60408385031215615a9e575f5ffd5b82516001600160401b03811115615ab3575f5ffd5b8301601f81018513615ac3575f5ffd5b8051615ad1614f2f82614ef0565b8082825260208201915060208360051b850101925087831115615af2575f5ffd5b6020840193505b82841015615b1d578351615b0c81614d20565b825260209384019390910190615af9565b8095505050505060208301516001600160401b03811115615b3c575f5ffd5b61561685828601615a32565b5f60208284031215615b58575f5ffd5b5051919050565b5f823560de19833603018112615958575f5ffd5b5f6119b53683615223565b5f60208284031215615b8e575f5ffd5b8135610dd0816157f1565b5f60208284031215615ba9575f5ffd5b8151610dd081614d20565b6001600160a01b03831681526040602082018190525f90611a5d90830184615330565b5f60208284031215615be7575f5ffd5b81516001600160401b03811115615bfc575f5ffd5b8201601f81018413615c0c575f5ffd5b8051615c1a614f2f82614ef0565b8082825260208201915060208360051b850101925086831115615c3b575f5ffd5b6020840193505b82841015610907578351615c55816154c6565b825260209384019390910190615c42565b6001600160a01b039384168152919092166020820152604081019190915260600190565b5f60018201615c9b57615c9b615a0b565b5060010190565b838152606060208201525f615cba6060830185615369565b82810360408401526109078185615054565b63ffffffff81811683821601908111156119b5576119b5615a0b565b818103818111156119b5576119b5615a0b565b63ffffffff82811682821603908111156119b5576119b5615a0b565b5f5f60408385031215615d28575f5ffd5b505080516020909101519092909150565b6001600160a01b03841681526060602082018190525f90615d5c90830185615330565b905063ffffffff83166040830152949350505050565b634e487b7160e01b5f52602160045260245ffd5b634e487b7160e01b5f52601260045260245ffd5b6001600160401b0382811682821603908111156119b5576119b5615a0b565b634e487b7160e01b5f52603160045260245ffd5b828152604060208201525f611a5d60408301846151e3565b5f82518060208501845e5f920191825250919050565b5f82615e1557634e487b7160e01b5f52601260045260245ffd5b50049056fea264697066735822122028823ec872a9df95048c08df1bd11d6833b239643a395c032aeedc56c3554f0e64736f6c634300081b0033",
    "linkReferences": {}
  },
  "methodIdentifiers": {
    "DELEGATION_APPROVAL_TYPEHASH()": "04a4f979",
    "allocationManager()": "ca8aa7c7",
    "beaconChainETHStrategy()": "9104c319",
    "calculateDelegationApprovalDigestHash(address,address,address,bytes32,uint256)": "0b9f487a",
    "calculateWithdrawalRoot((address,address,address,uint256,uint32,address[],uint256[]))": "597b36da",
    "completeQueuedWithdrawal((address,address,address,uint256,uint32,address[],uint256[]),address[],bool)": "e4cc3f90",
    "completeQueuedWithdrawals((address,address,address,uint256,uint32,address[],uint256[])[],address[][],bool[])": "9435bb43",
    "convertToDepositShares(address,address[],uint256[])": "25df922e",
    "cumulativeWithdrawalsQueued(address)": "a1788484",
    "decreaseDelegatedShares(address,uint256,uint64)": "60a0d1ce",
    "delegateTo(address,(bytes,uint256),bytes32)": "eea9064b",
    "delegatedTo(address)": "65da1264",
    "delegationApprover(address)": "3cdeb5e0",
    "delegationApproverSaltIsSpent(address,bytes32)": "bb45fef2",
    "depositScalingFactor(address,address)": "bfae3fd2",
    "domainSeparator()": "f698da25",
    "eigenPodManager()": "4665bcda",
    "getDepositedShares(address)": "66d5ba93",
    "getOperatorShares(address,address[])": "90041347",
    "getOperatorsShares(address[],address[])": "f0e0e676",
    "getQueuedWithdrawal(bytes32)": "5d975e88",
    "getQueuedWithdrawalRoots(address)": "fd8aa88d",
    "getQueuedWithdrawals(address)": "5dd68579",
    "getSlashableSharesInQueue(address,address)": "6e174448",
    "getWithdrawableShares(address,address[])": "c978f7ac",
    "increaseDelegatedShares(address,address,uint256,uint256)": "3c651cf2",
    "initialize(address,uint256)": "cd6dc687",
    "isDelegated(address)": "3e28391d",
    "isOperator(address)": "6d70f7ae",
    "minWithdrawalDelayBlocks()": "c448feb8",
    "modifyOperatorDetails(address,address)": "54b7c96c",
    "operatorShares(address,address)": "778e55f3",
    "owner()": "8da5cb5b",
    "pause(uint256)": "136439dd",
    "pauseAll()": "595c6a67",
    "paused()": "5c975abb",
    "paused(uint8)": "5ac86ab7",
    "pauserRegistry()": "886f1195",
    "pendingWithdrawals(bytes32)": "b7f06ebe",
    "permissionController()": "4657e26a",
    "queueWithdrawals((address[],uint256[],address)[])": "0dd8dd02",
    "queuedWithdrawals(bytes32)": "99f5371b",
    "redelegate(address,(bytes,uint256),bytes32)": "a33a3433",
    "registerAsOperator(address,uint32,string)": "2aa6d888",
    "renounceOwnership()": "715018a6",
    "slashOperatorShares(address,address,uint64,uint64)": "601bb36f",
    "strategyManager()": "39b70e38",
    "transferOwnership(address)": "f2fde38b",
    "undelegate(address)": "da8be864",
    "unpause(uint256)": "fabc1cbc",
    "updateOperatorMetadataURI(address,string)": "78296ec5",
    "version()": "54fd4d50"
  },
  "id": 123
}